:020000040800F2
:10000000082600205D080008A9040008AB040008C9
:10001000AF040008B3040008B704000800000000A3
:10002000000000000000000000000000BB04000809
:10003000BD04000800000000BF040008C10400085F
:100040007708000877080008770800087708000894
:100050007708000877080008770800087708000884
:100060007708000877080008770800087708000874
:100070007708000877080008770800087708000864
:100080007708000877080008770800087708000854
:100090007708000877080008770800087708000844
:1000A0007708000877080008770800087708000834
:1000B0007708000877080008770800087708000824
:1000C0007708000877080008770800087708000814
:1000D0007708000877080008770800087708000804
:1000E00077080008770800087708000800F002F891
:1000F00000F03AF80AA090E8000C82448344AAF188
:100100000107DA4501D100F02FF8AFF2090EBAE885
:100110000F0013F0010F18BFFB1A43F0010318473B
:1001200050D5000070D50000103A24BF78C878C1BF
:10013000FAD8520724BF30C830C144BF04680C60ED
:10014000704700000023002400250026103A28BF35
:1001500078C1FBD8520728BF30C148BF0B60704739
:100160001FB51FBD10B510BD02F02AFE1146FFF7E6
:10017000F7FF00F009F802F05CFE03B4FFF7F2FFAE
:1001800003BC00F00BFB00008EB0002211464FF4C0
:10019000E13000F012FB9BA002F0ACFDA1A002F048
:1001A000A9FD00F07FFA00F0F3FA01F069F928E107
:1001B00001F08DFA9F49A04801F005FC01F0B5FD62
:1001C000022000F0D0FA01F0F2FA01F0B9FD9B49EB
:1001D0009B4801F04FFC01F0A8FD022000F0C3FA9B
:1001E00001F075FA01F0ACFD9649974801F099FCD1
:1001F000002542E000243CE0002736E0002630E005
:1002000040222021914800EB05202A23CDE9093026
:10021000CDE90B1228218D4800EB04204A22CDE9BC
:100220000512CDE907018A4972222823874800EB8D
:100230000720CDE90232049101909C200090834870
:1002400000EB0622BC21184601F09EFD4FF4FA7027
:1002500000F065FA1CB9012F01D106B910E0701C3D
:10026000C6B20A2ECCDB781CC7B2062FC6DB601CD8
:10027000C4B20A2CC0DB681CC5B2062DBADB00BFB5
:1002800001F025FA01F05CFD01F04FFD032000F0C4
:100290006AFAFF204FF48773FA227A2100906D48A2
:1002A00001F096FFFF204FF48773FA227A21009025
:1002B000694801F08DFF01F0F9FAFF2002F0E8F83B
:1002C00001200346002201460090032002F015F9A8
:1002D0000120022300220F210090032002F00DF9DB
:1002E00001200323002228210090052002F005F9B7
:1002F00001200423002237210090052002F0FDF8A0
:1003000000200121CDE900016E231E22052102906B
:10031000084602F043F900200121CDE900011E2327
:100320002D2219460290052002F038F90120002103
:10033000FF222D23CDE900210290372205210F2035
:1003400002F09EF901200022CDE900202D236E222B
:10035000052102904B2002F093F9012000210B4669
:100360001222CDE900101921962002F0E2F90120B5
:1003700000900023122219210190D82002F0D9F90F
:100380000020FF21354B36A2CDE900103221142088
:1003900002F03BFB0020FF21334B34A2CDE90010DB
:1003A0003221642002F031FBFF200090334B34A255
:1003B00046210190282002F028FBFF200090344BBA
:1003C00034A25F2101903C2002F01FFB0120344940
:1003D000086021491F4801F048F900203149C1F85F
:1003E000A00101F0A2FC032000F0BDF901F06FF9BB
:1003F00001F0A6FC01F099FC022000F0B4F900BF66
:10040000FEE7D5E60D0A2D2D20322E3133696E63BD
:1004100068206570617065722064656D6F202D2D98
:100420000D0A000053544D333246313033433854B3
:10043000360D0A006C4E0008CC3E0008AC6D00087A
:100440000C5E0008EC8C00084C7D0008CC320008E3
:10045000CC3C00086800002008100020300000207C
:100460006162636465666700380000204142436151
:100470006263303132333435000000004000002028
:10048000322E31332220452D5061706572000000FC
:10049000480000205345454E475245415400000056
:1004A000A081214200802142704700BFFEE700BFCB
:1004B000FEE700BFFEE700BFFEE7704770477047EA
:1004C000704700000CB50020019000906C48006857
:1004D00040F480306A49086000BF6948006800F451
:1004E000003000900198401C0190009818B90198C4
:1004F000B0F5A06FF1D16248006800F4003010B18F
:100500000120009001E0002000900098012843D1D4
:100510005C48006840F010005A49086008460068CE
:1005200020F0030008600846006840F00200086000
:100530005348406852494860084640684860084649
:10054000406840F4806048600846406820F47C10B1
:1005500048600846406840F4E81048600846006873
:1005600040F08070086000BF4548006800F00070EF
:100570000028F9D04248406820F003004049486014
:100580000846406840F00200486000BF3C484068B0
:1005900000F00C000828F9D10CBD10B5FFF792FF50
:1005A00010BD10B53648006840F0010034490860BD
:1005B00008464068344908403149486008460068A8
:1005C000324908402E4908600846006820F480201F
:1005D00008600846406820F4FE0048604FF41F00A1
:1005E0008860FFF7DAFF4FF000602949086010BD0E
:1005F00010B5002100200022214B5B6803F00C01A4
:1006000021B1042906D0082928D107E0214B224C2A
:10061000236027E01F4B204C236023E0184B5B68CE
:1006200003F47010164B5B6803F48032022303EB73
:10063000904022B9194B4343174C23600DE0104BF7
:100640005B6803F4003323B1144B4343124C236023
:1006500003E0104B4343104C236003E00D4B0E4C62
:10066000236000BF00BF064B5B68C3F303130C4C51
:10067000E15C094B1B68CB40074C236010BD0000B8
:1006800000100240002002400000FFF8FFFFF6FECD
:1006900008ED00E000127A000000002000093D0093
:1006A0000400002010B56FF0040000F046F9344853
:1006B00000683449B0FBF1F033490870084600780F
:1006C00000EB4001C1EBC0104FF6FF7101EAC00022
:1006D0002E49088010BD01462B4A12784A434FF03C
:1006E000E0235A6100229A611A46126942F001021F
:1006F0001A6100BF4FF0E022106900F001021AB148
:1007000000F48032002AF5D04FF0E022126922F086
:1007100001024FF0E0231A6100229A6170470146FE
:100720001A4A12884A434FF0E0235A6100229A6124
:100730001A46126942F001021A6100BF4FF0E0222E
:10074000106900F001021AB100F48032002AF5D0DD
:100750004FF0E022126922F001024FF0E0231A610B
:1007600000229A61704730B50446002505E04FF439
:100770007A70FFF7D4FF681C85B2A542F7DB30BD65
:100780000000002000127A00140000201600002053
:1007900010B54FF4A06000F081F810BD014600BF15
:1007A000704700BF2B4A128802F04002002AF9D09D
:1007B000C2B2284B1B1D1A80704770B586B0044624
:1007C0000E461546012144F2050000F0F1FB4FF4FE
:1007D0000070ADF8140003208DF8160018208DF875
:1007E000170005A91C4800F027F94FF48060ADF808
:1007F000140004208DF8170005A9174800F01CF913
:1008000025208DF800008DF801608DF80250012040
:100810008DF80300684600F046F801940020ADF81A
:100820000800ADF80A00ADF80C00ADF810000C207F
:10083000ADF80E0001A9074800F061FC012240F26A
:100840002551044800F0F3FC0121024800F0E3FCCC
:1008500006B070BD003801400008014009488047DB
:1008600009480047FEE7FEE7FEE7FEE7FEE7FEE792
:10087000FEE7FEE7FEE7FEE704480549054A064BAA
:1008800070470000A3050008ED00000808200020C4
:1008900008260020082200200822002031490143B8
:1008A000314A1160704770B5002100230F22C478CF
:1008B00004B32D4C246804F4E064C4F5E064210A18
:1008C000C1F10403CA40447804FA03F18478144067
:1008D00021430901254C0678A155047804F01F0531
:1008E0000124AC4005786D11AD0005F1E025C5F897
:1008F000004109E0047804F01F050124AC401C4DC0
:100900000678761145F8264070BD1A4A0A4002431F
:10091000154B1B1F1A60704739B1134A121D12681C
:100920000243114B1B1D1A6006E00F4A121D12688C
:1009300082430D4B1B1D1A607047042808D14FF0ED
:10094000E021096941F004014FF0E022116107E064
:100950004FF0E021096921F004014FF0E02211611C
:10096000704700000000FA050CED00E000E400E034
:1009700080E100E080FFFF1F10B50446CC488442B0
:1009800008D10121042000F02DFB0021042000F0FB
:1009900029FB46E0C748844208D10121082000F025
:1009A00021FB0021082000F01DFB3AE0C2488442F0
:1009B00008D10121102000F015FB0021102000F0CB
:1009C00011FB2EE0BD48844208D10121202000F017
:1009D00009FB0021202000F005FB22E0B8488442FA
:1009E00008D10121402000F0FDFA0021402000F054
:1009F000F9FA16E0B348844208D10121802000F0C2
:100A0000F1FA0021802000F0EDFA0AE0AE488442BD
:100A100007D10121801500F0E5FA0021A01500F0B2
:100A2000E1FA10BD10B50121084600F0DBFA002103
:100A3000012000F0D7FA10BD2DE9F0410246002553
:100A40000026002000230024002791F803C00CF0AA
:100A50000F0591F803C00CF0100CBCF1000F03D08F
:100A600091F802C04CEA050591F800C0BCF1000FF6
:100A700031D0146800202BE04FF0010C0CFA00F389
:100A8000B1F800C00CEA03069E4220D183004FF06B
:100A90000F0C0CFA03F7BC4305FA03FC4CEA040400
:100AA00091F803C0BCF1280F06D14FF0010C0CFAED
:100AB00000FCC2F814C00AE091F803C0BCF1480F72
:100AC00005D14FF0010C0CFA00FCC2F810C0401C1C
:100AD0000828D1D31460B1F800C0BCF1FF0F34DD99
:100AE000546800202EE000F1080C4FF0010808FACD
:100AF0000CF3B1F800C00CEA03069E4221D183003A
:100B00004FF00F0C0CFA03F7BC4305FA03FC4CEA58
:100B1000040491F803C0BCF1280F05D100F1080CC2
:100B200008FA0CF8C2F8148091F803C0BCF1480F21
:100B300007D100F1080C4FF0010808FA0CF8C2F8D0
:100B40001080401C0828CED35460BDE8F0814FF6D9
:100B5000FF710180022181700421C170704702463B
:100B6000002093680B400BB1012000E0002070478B
:100B70000146886880B2704702460020D3680B4067
:100B80000BB1012000E0002070470146C86880B228
:100B9000704701617047416170470AB1016100E02F
:100BA00041617047C16070474FF480320A438261EF
:100BB0008161826182698269704702460020434BED
:100BC00018684FF68073184040EA021008433F4B04
:100BD000186070473E49C8617047F0B50A46002367
:100BE00000240021002500F00046B6F1004F02D19C
:100BF000364EF16901E0354E7168C0F3034583B2AA
:100C000000F44016B6F5401F08D121F070612F4E58
:100C1000766826F070662D4F7E6012E000F4801634
:100C2000B6F5801F06D1032606FA05F4A14341F06C
:100C3000706106E0460D360103FA06F6B14341F055
:100C4000706122B1460D360103FA06F6314300F019
:100C50000046B6F1004F02D11C4EF16101E01B4E7F
:100C60007160F0BD30B500228B071C0F0F2303FA13
:100C700004F2164B08338C1053F824309343134C72
:100C800008348D1044F8253023468C1053F8243056
:100C90008C07240F00FA04F423430C4C08348D1005
:100CA00044F8253030BD0A49DC3108607047000047
:100CB00000080140000C01400010014000140140F8
:100CC00000180140001C01400020014000000140CC
:100CD00000002042DF48006840F00100DD49086064
:100CE00008464068DC490840DA4948600846006820
:100CF000DA490840D74908600846006820F4802097
:100D000008600846406820F4FE0048604FF41F0069
:100D100088607047CF49096821F48031CD4A11605D
:100D20001146096821F480211160B0F5803F03D09D
:100D3000B0F5802F0ED106E0C649096841F4803134
:100D4000C44A116007E0C349096841F4A021C14ABF
:100D5000116000E000BF00BF704710B501460022DF
:100D6000002300204A11012A02D1BA4C236806E070
:100D7000022A02D1B74C236A01E0B64C636A01F043
:100D80001F02012494401C400CB1012000E000200F
:100D900010BD38B5002000900024002500BF312090
:100DA000FFF7DBFF05460098401C00900098B0F567
:100DB000A06F01D0002DF2D03120FFF7CEFF08B197
:100DC000012400E00024204638BD01460020A14A4D
:100DD000106820F0F80040EAC10010607047A04998
:100DE00008607047024600209A4B586820F47C1037
:100DF00042EA01031843974B5860704798490866C8
:100E0000704701460020934A506820F003000843D1
:100E1000506070478F48406800F00C0070470146F2
:100E200000208C4A506820F0F00008435060704762
:100E300001460020874A506820F4E0600843506073
:100E4000704701460020834A506820F4605040EA11
:100E5000C1005060704729B17E4A527A02437D4BEF
:100E60005A7204E07B4A527A82437A4B5A72704734
:100E70007B49D8310860704701460020754A5068A8
:100E800020F440400843506070470021714A2032EE
:100E90001170704A82F82010012802D004280AD16B
:100EA00004E001216B4A2032117005E00521694AF6
:100EB0002032117000E000BF00BF70476949086030
:100EC00070476449096A0143624A11627047654983
:100ED00044390860704730B5002100220024002307
:100EE0005C4D6D6805F00C0121B1042905D008297D
:100EF00023D105E05C4D056022E05B4D05601FE0FD
:100F0000544D6D6805F47012524D6D6805F48034CF
:100F1000022505EB92421CB9544D554305600BE088
:100F20004C4D6D6805F400351DB1504D55430560BD
:100F300002E04D4D5543056002E04B4D056000BF9A
:100F400000BF444D6D6805F0F0010909484D6B5C28
:100F50000568DD4045603F4D6D6805F4E061090AB4
:100F6000434D6B5C4568DD4085603A4D6D6805F426
:100F70006051C90A3E4D6B5C4568DD40C560354D2A
:100F80006D6805F44041890B3A4D6B5CC568B5FB53
:100F9000F3F5056130BD29B12E4A526902432D4B4C
:100FA0005A6104E02B4A526982432A4B5A617047C6
:100FB00029B1284A92690243264B9A6104E0254AE6
:100FC00092698243234B9A61704729B1214AD269C1
:100FD0000243204BDA6104E01E4AD26982431D4B72
:100FE000DA61704729B11B4AD2680243194BDA60B3
:100FF00004E0184AD2688243164BDA60704729B180
:10100000144A12690243134B1A6104E0114A12692F
:101010008243104B1A61704712494039086070478B
:101020000F49C86470470B49C87170470948406A46
:1010300040F0807007494862704701460020054A29
:1010400092680A400AB1012000E00020704701497F
:1010500088727047001002400000FFF8FFFFF6FEA4
:10106000000042428004424200127A0000093D0022
:101070001C0000202C00002010B50446FB488442D0
:1010800009D101218803FFF7ADFF00214FF4804013
:10109000FFF7A8FF32E0F648844209D10121480455
:1010A000FFF7ADFF00214FF40030FFF7A8FF25E068
:1010B000F048844209D101218804FFF7A0FF0021F4
:1010C0004FF48020FFF79BFF18E0EB48844209D1E2
:1010D0000121C804FFF793FF00214FF40020FFF720
:1010E0008EFF0BE0E548844208D101210805FFF797
:1010F00086FF00214FF48010FFF781FF10BD2DE91E
:10110000F04786B005460E460024A24600BFA14621
:101110000027B08900B100BF2F462C8A4CF6FF7023
:101120000440F08804432C82AC894EF6F31004404E
:10113000B08831890843718908430443AC81AC8A83
:101140004FF6FF400440B0890443AC8201A8FFF78A
:10115000C2FEC648874202D1DDF810A001E0DDF8EA
:101160000CA0A88900F4004040B10AEBCA0000EBD3
:101170000A1031684900B0FBF1F807E00AEBCA0039
:1011800000EB0A1031688900B0FBF1F86420B8FB6D
:10119000F0F004012009642101FB1089A88900F402
:1011A000004040B1322000EBC900B0FBF1F000F08C
:1011B0000700044308E0322000EB09106421B0FB73
:1011C000F1F000F00F0004432C8106B0BDE8F08779
:1011D0004FF41651016000218180C18001810C21F2
:1011E000418100218181704710B502460020108A9C
:1011F0004FF2FF0318400B884C8823438C8823430D
:10120000CC8823431843108210BD00210180418007
:101210008180C180704721B1828942F4005282816D
:1012200004E082894DF6FF731A4082817047F0B561
:101230000346002400260025002040F66A17B94224
:1012400000D100BF1846C1F3421401F01F06012768
:1012500007FA06F5012C01D10C3004E0022C01D173
:10126000103000E014301AB107682F43076002E025
:101270000768AF430760F0BD1AB1838A0B438382CE
:1012800002E0838A8B4383827047028A4FF6F073B1
:101290001A400282028A0A430282704782894FF210
:1012A000FF731A40828182890A438281704721B18B
:1012B000828942F00202828104E082894FF6FD7346
:1012C0001A4082817047028A4FF6DF731A40028209
:1012D000028A0A430282704721B1028A42F48042A4
:1012E000028204E0028A4BF6FF731A4002827047C2
:1012F000C1F308028280704701468888C0F3080065
:101300007047818941F0010181817047028BD2B21F
:101310000283028B42EA012202837047028B02F4AD
:101320007F420283028B0A430283704721B1828A83
:1013300042F02002828204E0828A4FF6DF731A4074
:101340008282704721B1828A42F01002828204E0D8
:10135000828A4FF6EF731A408282704721B1828AE7
:1013600042F00802828204E0828A4FF6F7731A4044
:101370008282704721B1828942F40042828103E077
:101380008289C2F30E028281704721B1828A42F4BF
:101390000062828204E0828A4FF2FF731A408282E6
:1013A0007047828A4FF6FB731A408282828A0A4310
:1013B0008282704721B1828A42F00202828204E076
:1013C000828A4FF6FD731A408282704702460020DF
:1013D000B1F5007F00D100BF13880B400BB1012095
:1013E00000E00020704701F40072B2F5007F00D1E8
:1013F00000BFCA430280704770B502460024002334
:101400000025002040F66A16B14200D100BFC1F3AA
:10141000421501F01F03012606FA03F3012D02D144
:101420009689334006E0022D02D1168A334001E04E
:10143000968A33400C12012606FA04F416883440CA
:1014400013B10CB1012000E0002070BD10B50022E6
:10145000002340F66A14A14200D100BF0A12012401
:101460009440A3B2DC43048010BD0000003801406A
:101470000044004000480040004C00400050004044
:1014800008B501210C20FFF793FD4FF43040ADF873
:10149000000010208DF8030003208DF8020069463B
:1014A000FC48FFF7C9FA4FF41060ADF800001020B7
:1014B0008DF8030003208DF802006946F648FFF717
:1014C000BBFA4FF48050ADF8000028208DF80300DF
:1014D00003208DF802006946EF48FFF7ADFA4FF49C
:1014E0008070ADF8000010208DF8030003208DF807
:1014F00002006946E748FFF79FFA0020E7490860C5
:1015000008BD002117E00022E44B14331A6000F0FC
:10151000800222B10122E14B1C331A6003E0002259
:10152000DE4B1C331A604206100E0122DB4B1433D3
:101530001A604A1CD1B20829E5DB704710B5044691
:101540000020D64910310860D549C1F8A0012046D5
:10155000FFF7D7FF0120D1491031086010BD10B549
:1015600004460020CD49103108600120CC49C1F863
:10157000A0012046FFF7C5FF0120C84910310860CF
:1015800010BD06E042F6E06100BF0A1EA1F10101B4
:10159000FBD1021EA0F10100F4D1704700B506E0B6
:1015A0000A20FFF7EEFFBF48006800B900E0F7E748
:1015B00000BF00BD10B501460023B84C14342360B1
:1015C000002217E001F0800323B10123B34C1C3447
:1015D000236003E00023B14C1C3423600123AF4C93
:1015E000143423600023B04CC4F8B4314B06190EF8
:1015F000531CDAB2082AE5DB10BD10B50446012001
:10160000A649103108600020A749C1F8B001A549DA
:10161000703108602046FFF7CDFF0120A249C1F8D4
:10162000B00110BD10B5044601209C49103108607E
:1016300000209D49C1F8B00101209A49703108602D
:101640002046FFF7B7FF01209749C1F8B00110BD50
:1016500000B52220FFF7D1FFF720FFF7E3FF20209E
:10166000FFF7CBFFFFF79AFF00BD2DE9F0430746D8
:10167000884610264FF0FA092420FFF7BEFF002508
:101680000AE0002405E005FB0641785CFFF7CAFF8D
:10169000641CB442F7D36D1C4D45F2D32620FFF7EE
:1016A000ACFF00250DE0002408E005FB064118F81A
:1016B0000110C943C8B2FFF7B5FF641CB442F4D3AC
:1016C0006D1C4D45EFD3FFF7C3FFBDE8F08300B5B8
:1016D000002074497C3108600A20FFF752FF012086
:1016E0006F49C1F8AC010A20FFF74BFFFFF756FF27
:1016F0001220FFF782FFFFF751FF0120FFF77DFF68
:101700000A20FFF73EFFF920FFF78CFF0A20FFF7C2
:1017100038FF0020FFF786FF0A20FFF732FF002086
:10172000FFF780FF1120FFF768FF0220FFF77AFF25
:101730004420FFF762FF0F20FFF774FF0020FFF740
:1017400071FF4520FFF759FF0020FFF76BFF0020D6
:10175000FFF768FFF920FFF765FF0020FFF762FF42
:101760004E20FFF74AFF0F20FFF75CFF4F20FFF7E7
:1017700044FF0020FFF756FF0020FFF753FF3C20F7
:10178000FFF73BFF0520FFF74DFF2120FFF735FF57
:101790000020FFF747FF8020FFF744FF1820FFF7E6
:1017A0002CFF8020FFF73EFFFFF7F8FE00BD00B5DD
:1017B00000203C497C3108600A20FFF7E2FE01204E
:1017C0003749C1F8AC010A20FFF7DBFE1220FFF712
:1017D00014FFFFF7E3FE0120FFF70FFF2720FFF7BD
:1017E00021FF0120FFF71EFF0020FFF71BFF112044
:1017F000FFF703FF0220FFF715FF4420FFF7FDFE70
:101800000F20FFF70FFF0020FFF70CFF4520FFF729
:10181000F4FE0020FFF706FF0020FFF703FFF9208A
:10182000FFF700FF0020FFF7FDFE1820FFF7E5FEA1
:101830008020FFF7F7FE2220FFF7DFFEB120FFF741
:10184000F1FE2020FFF7D9FEFFF7A8FE4E20FFF79C
:10185000D4FE0F20FFF7E6FE4F20FFF7CEFE00205C
:10186000FFF7E0FE0020FFF7DDFE1A20FFF7C5FEC0
:101870006420FFF7D7FE0020FFF7D4FE2220FFF7F9
:10188000BCFE9120FFF7CEFE2020FFF7B6FEFFF74B
:1018900085FE00BD000C014000080140A0812142EE
:1018A00000002142300121420080214200B5002089
:1018B000FE4908600A20FFF764FE0120FC49C1F8D8
:1018C000AC010A20FFF75DFEFFF768FE1220FFF76C
:1018D00094FEFFF763FE0120FFF78FFE0A20FFF75B
:1018E00050FEF920FFF79EFE0A20FFF74AFE002077
:1018F000FFF798FE0A20FFF744FE0020FFF792FE54
:101900001120FFF77AFE0120FFF78CFE4420FFF73D
:1019100074FE0020FFF786FE0F20FFF783FE4520B0
:10192000FFF76BFEF920FFF77DFE0020FFF77AFE40
:101930000020FFF777FE0020FFF774FE3C20FFF742
:101940005CFE0520FFF76EFE1820FFF756FE802094
:10195000FFF768FE4E20FFF750FE0020FFF762FE03
:101960004F20FFF74AFEF920FFF75CFE0020FFF74B
:1019700059FEFFF713FE00BD00B52220FFF73DFE24
:10198000C720FFF74FFE2020FFF737FEFFF706FEC8
:1019900000BD00B52220FFF730FEF420FFF742FE25
:1019A0002020FFF72AFEFFF7F9FD00BD00B5222039
:1019B000FFF723FEFF20FFF735FE2020FFF71DFE77
:1019C000FFF7ECFD00BD2DE9F041074688461026E3
:1019D0002420FFF712FE00251CE0002417E044B984
:1019E00005FB0641795CFC2242EAA110FFF71AFED2
:1019F0000CE005FB0641491E795C890005FB0642A7
:101A0000BA5C41EAA211C8B2FFF70CFE641CB442F2
:101A1000E5D36D1CFA2DE0D32620FFF7EEFD00255F
:101A200022E000241DE05CB905FB064118F8011016
:101A3000FC2242EAA111C943C8B2FFF7F3FD0FE04F
:101A400005FB0641491E18F80110890005FB0642F6
:101A500018F8022041EAA211C943C8B2FFF7E2FD1B
:101A6000641CB442DFD36D1CFA2DDAD3FFF7F0FD0E
:101A7000BDE8F0812DE9F041074688461026242074
:101A8000FFF7BBFD00251CE0002417E044B905FB6F
:101A90000641795CFC2242EAA110FFF7C3FD0CE08D
:101AA00005FB0641491E795C890005FB0642BA5CCC
:101AB00041EAA211C8B2FFF7B5FD641CB442E5D3F8
:101AC0006D1CFA2DE0D32620FFF797FD002522E0BC
:101AD00000241DE05CB905FB064118F80110FC224A
:101AE00042EAA111C943C8B2FFF79CFD0FE005FB14
:101AF0000641491E18F80110890005FB064218F836
:101B0000022041EAA211C943C8B2FFF78BFD641C51
:101B1000B442DFD36D1CFA2DDAD3FFF72DFFBDE8F9
:101B2000F0812DE9F04307468846B9461026242067
:101B3000FFF763FD00251CE0002417E044B905FB16
:101B40000641795CFC2242EAA110FFF76BFD0CE034
:101B500005FB0641491E795C890005FB0642BA5C1B
:101B600041EAA211C8B2FFF75DFD641CB442E5D39F
:101B70006D1CFA2DE0D32620FFF73FFD002522E063
:101B800000241DE05CB905FB064118F80110FC2299
:101B900042EAA111C943C8B2FFF744FD0FE005FBBB
:101BA0000641491E18F80110890005FB064218F885
:101BB000022041EAA211C943C8B2FFF733FD641CF9
:101BC000B442DFD36D1CFA2DDAD3FFF7E2FEFFF744
:101BD000E5FC4F462620FFF710FD00251CE0002401
:101BE00017E044B905FB0641795CFC2242EAA110EA
:101BF000FFF718FD0CE005FB0641491E795C8900E2
:101C000005FB0642BA5C41EAA211C8B2FFF70AFD21
:101C1000641CB442E5D36D1CFA2DE0D3BDE8F0831B
:101C20002DE9FE4F04460F4690469946DDF830B048
:101C3000E40804EBDB00401EC0F10F000290C4F189
:101C40000F04002001903D46FF2F02D9280A019081
:101C5000EDB20020009007EB0900461EFF2E02D9CE
:101C6000300A0090F6B20020104908600A20FFF701
:101C700088FC01200E49C1F8AC010A20FFF781FC65
:101C80003C20FFF7BAFC8020FFF7CCFC4420FFF794
:101C9000B4FCE0B2FFF7C6FC0299C8B2FFF7C2FC81
:101CA0004520FFF7AAFCC5F1F90103E0AC01214290
:101CB00000002142C8B2FFF7B5FC0199C1F1F9015A
:101CC000C8B2FFF7AFFCC6F1F901C8B2FFF7AAFC32
:101CD0000099C1F1F901C8B2FFF7A4FC4E20FFF74B
:101CE0008CFCE0B2FFF79EFC4F20FFF786FCE8B2C9
:101CF000FFF798FC0199C8B2FFF794FC2420FFF786
:101D00007CFC4FF0000A07E098F80000FFF78AFC1F
:101D100008F101080AF1010A09FB0BF0BAEBD00F38
:101D2000F2D3FFF743FEBDE8FE8F00B51020FFF7AA
:101D300064FC0120FFF776FC6420FFF722FC00BD65
:101D400030B52420FFF759FC002408E0002503E00B
:101D5000FF20FFF767FC6D1C102DF9D3641CFA2CD3
:101D6000F4D32620FFF749FC002408E0002503E017
:101D70000020FFF757FC6D1C102DF9D3641CFA2CC2
:101D8000F4D3FFF765FC30BD2DE9FF4F82B08246EA
:101D90009B46DDE91A784FEADA0A0AEBD800401EC2
:101DA000C0F10F000190CAF10F0A4FF0000903982B
:101DB000451E0398FF2802D94FEA1529EDB20020ED
:101DC000009003983844441EFF2C02D9200A00904A
:101DD000E4B20020FC4908600A20FFF7D2FB012092
:101DE000FA49C1F8AC010A20FFF7CBFB3C20FFF712
:101DF00004FC8020FFF716FC4420FFF7FEFB0AF0EE
:101E0000FF00FFF70FFC0199C8B2FFF70BFC45205C
:101E1000FFF7F3FBC5F1F901C8B2FFF703FCC9F105
:101E2000F901C8B2FFF7FEFBC4F1F901C8B2FFF730
:101E3000F9FB0099C1F1F901C8B2FFF7F3FB4E209D
:101E4000FFF7DBFB0AF0FF00FFF7ECFB4F20FFF78B
:101E5000D4FBE8B2FFF7E6FB09F0FF00FFF7E2FB77
:101E60002420FFF7CAFB002607E004990878FFF753
:101E7000D9FB0498401C0490761C07FB08F0B6EBD5
:101E8000D00FF2D34FEADB0B0BEBD800401EC0F1B2
:101E90000F000190CBF10F0B4FF000090F98451E7A
:101EA0000F98FF2802D94FEA1529EDB200200090C3
:101EB0000F983844441EFF2C02D9200A0090E4B247
:101EC0004420FFF79AFB0BF0FF00FFF7ABFB0199F3
:101ED000C8B2FFF7A7FB4520FFF78FFBC5F1F9015B
:101EE000C8B2FFF79FFBC9F1F901C8B2FFF79AFB2F
:101EF000C4F1F901C8B2FFF795FB0099C1F1F901EE
:101F0000C8B2FFF78FFB4E20FFF777FB0BF0FF0007
:101F1000FFF788FB4F20FFF770FBE8B2FFF782FB6B
:101F200009F0FF00FFF77EFB2420FFF766FB002689
:101F300007E010990878FFF775FB1098401C109087
:101F4000761C07FB08F0B6EBD00FF2D31198C0084F
:101F50001190119800EBD800401EC0F10F000190C5
:101F60001198C0F10F0011904FF000091298451E12
:101F70001298FF2802D94FEA1529EDB200200090EF
:101F800012983844441EFF2C02D9200A0090E4B273
:101F90004420FFF732FB1199C8B2FFF743FB0199C8
:101FA000C8B2FFF73FFB4520FFF727FBC5F1F9015A
:101FB000C8B2FFF737FBC9F1F901C8B2FFF732FB2E
:101FC000C4F1F901C8B2FFF72DFB0099C1F1F90185
:101FD000C8B2FFF727FB4E20FFF70FFB1199C8B2DD
:101FE000FFF720FB4F20FFF708FBE8B2FFF71AFBD3
:101FF00009F0FF00FFF716FB2420FFF7FEFA00268A
:1020000007E013990878FFF70DFB1398401C139015
:10201000761C07FB08F0B6EBD00FF2D31498C0087B
:102020001490149800EBD800401EC0F10F000190EE
:102030001498C0F10F0014904FF000091598451E38
:102040001598FF2802D94FEA1529EDB2002000901B
:1020500015983844441EFF2C02D9200A0090E4B29F
:102060004420FFF7CAFA1499C8B2FFF7DBFA0199C6
:10207000C8B2FFF7D7FA4520FFF7BFFAC5F1F9015B
:10208000C8B2FFF7CFFAC9F1F901C8B2FFF7CAFA2F
:10209000C4F1F901C8B2FFF7C5FA0099C1F1F9011D
:1020A000C8B2FFF7BFFA4E20FFF7A7FA1499C8B2DB
:1020B000FFF7B8FA4F20FFF7A0FAE8B2FFF7B2FA3D
:1020C00009F0FF00FFF7AEFA2420FFF796FA00268A
:1020D00007E016990878FFF7A5FA1698401C1690A5
:1020E000761C07FB08F0B6EBD00FF2D31798C008A8
:1020F0001790179800EBD800401EC0F10F00019018
:102100001798C0F10F0017904FF000091898451E5E
:102110001898FF2802D94FEA1529EDB20020009047
:1021200018983844441EFF2C02D9200A0090E4B2CB
:102130004420FFF762FA1799C8B2FFF773FA0199C2
:10214000C8B2FFF76FFA4520FFF757FAC5F1F9015A
:10215000C8B2FFF767FAC9F1F901C8B2FFF762FA2E
:10216000C4F1F901C8B2FFF75DFA0099C1F1F901B4
:10217000C8B2FFF757FA4E20FFF73FFA1799C8B2D7
:10218000FFF750FA4F20FFF738FAE8B2FFF74AFAA4
:1021900009F0FF00FFF746FA2420FFF72EFA002689
:1021A00007E019990878FFF73DFA1998401C199033
:1021B000761C07FB08F0B6EBD00FF2D3FFF7F6FB67
:1021C00006B0BDE8F08F0000AC01214200002142C2
:1021D0002DE9F0410646069F0020F74C206020467E
:1021E00006600181428187810C464FEAE17C01EB68
:1021F0005C7C4FEAEC0CA1EBCC0CBCF1000F07D1DE
:102200000D464FEAE57C05EB5C7C4FEAEC0C08E000
:1022100008464FEAE17C01EB5C7C4FEAEC0C0CF1E8
:10222000010CDFF89483A8F812C040468282C38173
:102230000120444620820BB1B42B03D1DE488180BB
:10224000C28002E0DC488280C180BDE8F081DA49CA
:102250000860704730B15A2804D0B42802D0B0F5D5
:10226000877F01D1D449C881704728B1012803D0A4
:10227000022801D0032801D1CF49088270472DE9F7
:10228000F04303460C461546DFF82CC3BCF804C0E7
:102290009C4505DBDFF820C3BCF806C0A44501DA85
:1022A000BDE8F083DFF810C3BCF80EC0BCF1000F2E
:1022B00009D0BCF15A0F09D0BCF1B40F12D0BCF553
:1022C000877F30D123E0184621462DE0DFF8E8C2B1
:1022D000BCF808C0ACEB040CACF1010C1FFA8CF09C
:1022E000194621E0DFF8D0C2BCF808C0ACEB030C03
:1022F000ACF1010C1FFA8CF0DFF8BCC2BCF80AC0CC
:10230000ACEB040CACF1010C1FFA8CF10CE0204694
:10231000DFF8A4C2BCF80AC0ACEB030CACF1010CB2
:102320001FFA8CF100E0BBE700BFDFF88CC2BCF8FD
:1023300010C0BCF1000F09D0BCF1010F07D0BCF1F7
:10234000020F0FD0BCF1030F2CD116E02BE0DFF809
:1023500068C2BCF808C0ACEB000CACF1010C1FFA71
:102360008CF020E0DFF850C2BCF80AC0ACEB010CE6
:10237000ACF1010C1FFA8CF115E0DFF83CC2BCF89F
:1023800008C0ACEB000CACF1010C1FFA8CF0DFF8CC
:1023900028C2BCF80AC0ACEB010CACF1010C1FFA6E
:1023A0008CF100E07CE700BFDFF80CC2BCF808C08D
:1023B000844505DBDFF800C2BCF80AC08C4500DAB2
:1023C0006EE784464FEAE07800EB58784FEAE80879
:1023D000DFF8E491B9F8129001FB0982DFF8DCC163
:1023E0001CF80260DFF8D8C11CF802709DB9844661
:1023F0004FEAE07800EB58784FEAE808A0EBC8090C
:102400004FF0800848FA09F826EA0808DFF8AC918E
:1024100009F802803AE0FF2D13D184464FEAE078B4
:1024200000EB58784FEAE808A0EBC8094FF08008A5
:1024300048FA09F827EA0808DFF8849109F80280C9
:1024400024E084464FEAE07800EB58784FEAE80849
:10245000A0EBC8094FF0800848FA09F848EA0608D6
:10246000DFF85C9109F802804FEAE07800EB5878D9
:102470004FEAE808A0EBC8094FF0800848FA09F8CD
:1024800048EA0708DFF8349109F8028000BF07E73F
:1024900030B5002211E0002109E0474C648A02FBBC
:1024A0000413474DE854454DE8544C1CA1B2424C2E
:1024B000648A8C42F1DC541CA2B23F4CA48A944240
:1024C000E9DC30BD2DE9F04706460F4690469946B7
:1024D000DDF820A03D460CE0344606E05246294691
:1024E0002046FFF7CCFE601C84B24445F6DB681C36
:1024F00085B24D45F0DBBDE8F0872DE9F047074692
:10250000884691461C46DDF820A02B488088B842BA
:1025100003DB2948C088404501DABDE8F087BAF1FD
:10252000010F23D100251CE0002613E07819001BC1
:1025300003D408EB0600001B00D50FE008EB0602F1
:10254000121B91B27A19121B90B24A46FFF797FEFE
:10255000701C06B26000401EB042E7DC00BF681C81
:1025600005B26000401EA842DEDC15E0002511E047
:1025700000260BE008EB0602521E91B27A19521E99
:1025800090B24A46FFF77BFE701C06B2A642F1DB12
:10259000681C05B2A542EBDB00BFBEE72DE9F04F9A
:1025A00086B004460D4616461F46A0460595301BCC
:1025B00008D4301B07E00000500000206800002015
:1025C00008100020A01B0490781B01D4781B00E0A9
:1025D000E81B82460498A0EB0A09B44202DD4FF0E2
:1025E000FF3000E001200290BD4202DD4FF0FF30DD
:1025F00000E0012001904FF0000B00BF0BF1010B38
:10260000119801280ED103209BFBF0F100FB11B0C3
:1026100040B9012000904046DDE90F230599FFF7FE
:102620006CFF09E0119838B9012000904046DDE9BF
:102630000F230599FFF761FFB04503D10598B84214
:1026400000D119E04FEA49000390CAF10001039854
:10265000884205DBA9EB0A09029840441FFA80F87A
:10266000DDE903018842C9DC049881440199059899
:10267000084480B20590C1E700BF06B0BDE8F08F06
:102680002DE9FE4F81460F4692469846DDE90DB58D
:102690000C9CF648808848450BDBF448C088B8425B
:1026A00007DBF2488088504503DBF048C08840458E
:1026B00001DABDE8FE8FBBF1010F10D13E460BE001
:1026C0000020334652463146CDE900450290484647
:1026D000FFF764FF701C86B24645F1DB27E000205F
:1026E0003B4652463946CDE9004502904846FFF741
:1026F00055FF002043464A463946CDE90045029041
:102700004846FFF74BFF0020434652463946CDE985
:10271000004502905046FFF741FF002043465246D5
:102720004146CDE9004502904846FFF737FF00BF1C
:10273000BFE72DE9F84F05460E4691469B4600241B
:102740004F46C9F1010AC9488088A84203DBC7483F
:10275000C088B04204DAC6A000F0CCFABDE8F88F19
:10276000C5E00A98002850D10120F21991B22A1927
:10277000009090B25A460B9BFFF7BFFE0120321922
:1027800091B2EA19009090B25A460B9BFFF7B5FE42
:102790000120F21991B22A1B009090B25A460B9B6D
:1027A000FFF7ABFE0120321991B2EA1B009090B204
:1027B0005A460B9BFFF7A1FE0120F21B91B22A1B88
:1027C000009090B25A460B9BFFF797FE0120321BF8
:1027D00091B2EA1B009090B25A460B9BFFF78DFE18
:1027E0000120F21B91B22A19009090B25A460B9B1D
:1027F000FFF783FE0120321B91B2EA19009090B2DC
:102800005A460B9BFFF779FE62E00A9801285FD1D8
:10281000A0465BE0012006EB080291B22A19009065
:1028200090B25A460B9BFFF768FE0120321991B215
:1028300005EB0802009090B25A460B9BFFF75DFE35
:10284000012006EB080291B22A1B009090B25A4672
:102850000B9BFFF752FE0120321991B2A5EB080243
:10286000009090B25A460B9BFFF747FE0120A6EB63
:10287000080291B22A1B009090B25A460B9BFFF7B8
:102880003CFE0120321B91B2A5EB0802009090B2F1
:102890005A460B9BFFF731FE0120A6EB080291B2CE
:1028A0002A19009090B25A460B9BFFF726FE012092
:1028B000321B91B205EB0802009090B25A460B9B76
:1028C000FFF71BFE08F101001FFA80F8B845A1DDF3
:1028D000BAF1000F03DA6000C01C824405E0E01B7F
:1028E0004000401D8244781E87B2601C84B2A7421B
:1028F0003FF737AF00BF31E72DE9FC4F0746884669
:1029000092461D46DDF82CB058488088B84203DB5B
:102910005648C088404501DABDE8FC8FA988CA172F
:1029200001EB5272D2100846CB1701EB5373DB1048
:10293000A1EBC3030BB1012300E000231A44EB8891
:102940005A4392B20092AAF12000009A504301909B
:102950002968019801EB0009002651E0002440E0BD
:10296000BBF1FF0F14D1E11704EB5171C910A4EBB7
:10297000C1028021114199F80020114029B308EBD0
:10298000060291B23A1990B20C9AFFF778FC1CE05B
:10299000E11704EB5171C910A4EBC1028021114170
:1029A00099F80020114041B108EB060291B23A19A2
:1029B00090B20C9AFFF763FC07E008EB060291B2B5
:1029C0003A1990B25A46FFF75AFCE11704EB5171DD
:1029D000C910A4EBC101072901D109F10109601C4B
:1029E00084B2A888A042BBDCA888C11700EB517153
:1029F000C910A0EBC10109B109F10109701C86B22F
:102A0000E888B042AADC00BF86E72DE9FC4F074604
:102A1000884615461C46DDE90BAB3E46C14620E024
:102A2000A088304411498988884204DD3E46E08808
:102A300048441FFA80F9E08848440C49C988884214
:102A400003DDC146A088304486B2CDE900AB15F85D
:102A5000012B234649463046FFF74EFFA0883044FD
:102A600086B228780028DBD1BDE8FC8F500000201A
:102A70004552523A636972636C652063656E746592
:102A80007220706F696E74206F7574206F6620738A
:102A9000637265656E2061726561210D0A00000038
:102AA0002DE9F04FADF5037D06460F4615469946D4
:102AB000DDF834B2DDF830A20024A0464FF4807176
:102AC00043A800F023F94FF4807103A800F01EF929
:102AD00043A8029082488088B04203DB8048C088C7
:102AE000B84203DA0DF5037DBDE8F08F0CE00A2053
:102AF00095FBF0F100FB1150303003A90855601C24
:102B000004B20A2095FBF0F5002DF0D10BE0601E19
:102B100003A9085C43A901F8080008F101000FFAB5
:102B200080F8601E04B2002CF1DC4B46CDE900AB0E
:102B300039463046029AFFF768FF00BFD2E72DE919
:102B4000FF4F85B0054690469A46DDE9126765A2BB
:102B500007CA02AC07C4BAF8044098F804000A2176
:102B600090FBF1F002A911F8009053464A46CDE9D6
:102B7000006728460699FFF7BFFE98F804000A216F
:102B800090FBF1F201FB120002A911F80090291943
:102B900088B253464A46CDE900670699FFF7ACFE76
:102BA000A146E11704EB91712A1902EBA101A3469A
:102BB00004EBDB7201EB620188B253463A22CDE9A5
:102BC00000670699FFF798FE98F805000A2190FB28
:102BD000F1F002A911F800B004EBD97105EB440241
:102BE00002EB610188B253465A46CDE90067069967
:102BF000FFF782FE98F805000A2190FBF1F201FB35
:102C0000120002A911F800B004EBD97104EB4402E0
:102C10002A4402EB610188B253465A46CDE9006767
:102C20000699FFF769FE04EBD97105EB840202EB0C
:102C30006101A346E21704EB9272A1EBA20188B2F4
:102C400053463A22CDE900670699FFF755FE98F8FA
:102C500006000A2190FBF1F002A911F8009004EBA4
:102C60008401294488B253464A46CDE90067069953
:102C7000FFF742FE98F806000A2190FBF1F201FBF3
:102C8000120002A911F8009004EB440105EB410188
:102C900088B253464A46CDE900670699FFF72CFEF5
:102CA00009B0BDE8F08F30B502460023002111E0E5
:102CB000002009E00A4C648A01FB0403D45C084D3F
:102CC0002D68EC54441CA0B2054C648A8442F1DCAB
:102CD0004C1CA1B2024CA48A8C42E9DC30BD00003D
:102CE0005000002030313233343536373839000067
:102CF000704700000FB4044910B503AA029800F011
:102D000031F810BC5DF814FB180000204FF00002F1
:102D100000B5134694469646203922BFA0E80C50D1
:102D2000A0E80C50B1F12001BFF4F7AF090728BFAC
:102D3000A0E80C5048BF0CC05DF804EB890028BF28
:102D400040F8042B08BF704748BF20F8022B11F051
:102D5000804F18BF00F8012B7047704770477047CD
:102D600070470000074B70B50D467B4400F011F82A
:102D70000446284600F020F810B14FF0FF3070BD37
:102D8000204670BD35DAFFFF01694A1C02610878F0
:102D9000704700B58FB0CDE901310021059105499B
:102DA0007944CDE903101146684600F02EF80FB0C3
:102DB00000BD0000E5FFFFFF007B00F080007047D2
:102DC000754600F03FF8AE4605006946534620F0D0
:102DD0000700854618B020B5FDF74EFDBDE8204040
:102DE0004FF000064FF000074FF000084FF0000BC7
:102DF00021F00701AC46ACE8C009ACE8C009ACE87A
:102E0000C009ACE8C0098D4670472DE9F04106467F
:102E10000024D6E90170F5688046304603E041465B
:102E2000B847641C3046A8470028F8D12046BDE8C2
:102E3000F08110B50446AFF300802046BDE8104095
:102E4000FDF79BB900487047A81F0020FFFFFFFF58
:102E5000FFFFFFFFFFFFFFFFFFFFFFFFFFFFFFFF82
:102E6000FFFFFFFFFFFFFFFFFFFFFFFFFFFFFFFF72
:102E7000FFFFFFFFFFFFFFFFFFDFFFF7FFDFFFF7B2
:102E8000FFDFFFF7FFDFFFE7FF800007FF0000071E
:102E9000FF000007FFFFFFE7FFFFFFF7FFFFFFF760
:102EA000FFFFFFF7FFFFFFFFFFFFFFFFFFFFFFFF3A
:102EB000FFFFFFFFFFFFFFFFFFFFFFFFFFFFFFFF22
:102EC000FFFFFFFFFFFFFFFFFFFFFFFFFFFFFFFF12
:102ED000FFFFFFFFFFFFFFFFFFFFFFFFFFFFFFFF02
:102EE000FFFFFFFFFFFFFFFFFFFFFFFFFFFFFFFFF2
:102EF000FFFFFFFFFFE1FFC7FFC1FF87FF99FF272C
:102F0000FF3FFE67FF7FFCE7FF7FF9E7FF7FF3E707
:102F1000FF7FE7E7FF3FCFE7FF1F1FE7FF803FC7C8
:102F2000FF807E07FFE0FE1FFFFFFFFFFFFFFFFFA9
:102F3000FFFFFFFFFFFFFFFFFFFFFFFFFFFFFFFFA1
:102F4000FFFFFFFFFFFFFFFFFFFFFFFFFFFFFFFF91
:102F5000FFFFFFFFFFFFFFFFFFFFFFFFFFFFFFFF81
:102F6000FFFFFFFFFFFFFFFFFFFFFFFFFFFFFFFF71
:102F7000FFFFFFFFFFC3FE1FFF83FE0FFF83FE0F58
:102F8000FF3FFFE7FF7FBFF7FF7FBFF7FF7FBFF781
:102F9000FF3F1FF7FF1E1FE7FF804FCFFF80C00FCF
:102FA000FFE1E01FFFFFF87FFFFFFFFFFFFFFFFFD5
:102FB000FFFFFFFFFFFFFFFFFFFFFFFFFFFFFFFF21
:102FC000FFFFFFFFFFFFFFFFFFFFFFFFFFFFFFFF11
:102FD000FFFFFFFFFFFFFFFFFFFFFFFFFFFFFFFF01
:102FE000FFFFFFFFFFFFFFFFFFFFFFFFFFFFFFFFF1
:102FF000FFFFFDFFFFFFF1FFFFFFE1FFFFFF8DFF81
:10300000FFFE1DFFFFFC7DFBFFF0FDFBFFE3FDFB73
:10301000FF800003FF000003FF000003FF00000328
:10302000FFFFFDFBFFFFFDFBFFFFFDFBFFFFFFFFC2
:10303000FFFFFFFFFFFFFFFFFFFFFFFFFFFFFFFFA0
:10304000FFFFFFFFFFFFFFFFFFFFFFFFFFFFFFFF90
:10305000FFFFFFFFFFFFFFFFFFFFFFFFFFFFFFFF80
:10306000FFFFFFFFFFFFFFFFFFFFFFFFFFFFFFFF70
:10307000FFFFFFFFFFFFFE1FFFF81E0FFF001E6791
:10308000FF073FF7FF3E7FF7FF3EFFF7FF3EFFF7EB
:10309000FF3EFFF7FF3E7FE7FF3E3F8FFF3F000F02
:1030A000FF3F801FFF3FE07FFFFFFFFFFFFFFFFFAE
:1030B000FFFFFFFFFFFFFFFFFFFFFFFFFFFFFFFF20
:1030C000FFFFFFFFFFFFFFFFFFFFFFFFFFFFFFFF10
:1030D000FFFFFFFFFFFFFFFFFFFFFFFFFFFFFFFF00
:1030E000FFFFFFFFFFFFFFFFFFFFFFFFFFFFFFFFF0
:1030F000FFFFFFFFFFFE00FFFFF0003FFFE0001FAC
:10310000FFC38F0FFF9F9FC7FF3F3FE7FF3F7FF743
:10311000FF7F7FF7FF7F7FF7FF7F3FE7FF0F1FCF27
:10312000FF8F800FFFCFC01FFFFFE07FFFFFFFFF7C
:10313000FFFFFFFFFFFFFFFFFFFFFFFFFFFFFFFF9F
:10314000FFFFFFFFFFFFFFFFFFFFFFFFFFFFFFFF8F
:10315000FFFFFFFFFFFFFFFFFFFFFFFFFFFFFFFF7F
:10316000FFFFFFFFFFFFFFFFFFFFFFFFFFFFFFFF6F
:10317000FFFFFFFFFFC3FFFFFF03FFFFFF0FFFFF87
:10318000FF1FFFFFFF3FFE07FF3FF007FF3F8007E6
:10319000FF3E0FFFFF387FFFFF21FFFFFF07FFFF0D
:1031A000FF1FFFFFFF3FFFFFFFFFFFFFFFFFFFFFCF
:1031B000FFFFFFFFFFFFFFFFFFFFFFFFFFFFFFFF1F
:1031C000FFFFFFFFFFFFFFFFFFFFFFFFFFFFFFFF0F
:1031D000FFFFFFFFFFFFFFFFFFFFFFFFFFFFFFFFFF
:1031E000FFFFFFFFFFFFFFFFFFFFFFFFFFFFFFFFEF
:1031F000FFFFF83FFFE1F01FFFC0E00FFF8047CF68
:10320000FF1C0FE7FF3E1FF7FF7F1FF7FF7F9FF7B2
:10321000FF7F8FF7FF3F87E7FF1E03CFFF80600F21
:10322000FFC0F01FFFE1F83FFFFFFFFFFFFFFFFFC1
:10323000FFFFFFFFFFFFFFFFFFFFFFFFFFFFFFFF9E
:10324000FFFFFFFFFFFFFFFFFFFFFFFFFFFFFFFF8E
:10325000FFFFFFFFFFFFFFFFFFFFFFFFFFFFFFFF7E
:10326000FFFFFFFFFFFFFFFFFFFFFFFFFFFFFFFF6E
:10327000FFF03FFFFFC01F8FFF800F8FFF8FC787BB
:10328000FF3FE7F7FF7FF7F7FF7FF7F7FF7FF7E7EE
:10329000FF7FE7C7FF3FCF8FFF8F8C1FFFC0003F2F
:1032A000FFE0007FFFF803FFFFFFFFFFFFFFFFFFCF
:1032B000FFFFFFFFFFFFFFFFFFFFFFFFFFFFFFFF1E
:1032C000FFFFFFFFFFFFFFFFFFFFFFFFFFFFFFFF0E
:1032D000FFFFFFFFFFFFFFFFFFFFFFFFFFFFFFE01D
:1032E00003FFFFFFFFFFFC00001FFFFFFFFFE000E9
:1032F0000003FFFFFFFF80000000FFFFFFFE000054
:1033000000003FFFFFFC000000001FFFFFF800006F
:1033100000000FFFFFF003FFFFE007FFFFE03FFFAC
:10332000FFFE03FFFFE0FFFFFFFF83FFFFC1FFFF83
:10333000FFFFC1FFFFC7FFFFFFFFF1FFFFC7FFFF59
:10334000FFFFF1FFFFCFFFFFFFFFF9FFFFCFFFFF01
:10335000FFFFF9FFFFC7FFFFFFFFF1FFFFC7FFFF01
:10336000FFFFF1FFFFC3FFFFFFFFE1FFFFE0FFFFF4
:10337000FFFF83FFFFE03FFFFFFE03FFFFF003FFC0
:10338000FFC007FFFFF8000000000FFFFFFC000078
:1033900000001FFFFFFE000000003FFFFFFF800056
:1033A0000000FFFFFFFFE0000003FFFFFFFFFE0044
:1033B000003FFFFFFFFFFFFFFFFFFFFFFFFFFFFFDC
:1033C000FFFFFFFFFFFFFFFFFFFFFFFFFFFFFFFF0D
:1033D000FFFFFFFFFFFFFFFFFFFFFFFFFFFFFFFFFD
:1033E000FFFFFFFFFFFFFFFFFFFFFFFFFFFFFFFFED
:1033F000FFFFFFFFFFFFFFFFFFFFFFFFFFFCFFFFE0
:10340000FFFFF3FFFFFCFFFFFFFFF3FFFFFCFFFFEA
:10341000FFFFF3FFFFFCFFFFFFFFF3FFFFFCFFFFDA
:10342000FFFFF3FFFFFCFFFFFFFFF3FFFFF8FFFFCE
:10343000FFFFE3FFFFF80000000003FFFFF00000C4
:10344000000003FFFFF00000000003FFFFC00000CA
:10345000000003FFFFC00000000003FFFFC00000EA
:10346000000003FFFFFFFFFFFFFFC3FFFFFFFFFFA2
:10347000FFFFE3FFFFFFFFFFFFFFF3FFFFFFFFFF84
:10348000FFFFF3FFFFFFFFFFFFFFF3FFFFFFFFFF64
:10349000FFFFF3FFFFFFFFFFFFFFF3FFFFFFFFFF54
:1034A000FFFFFFFFFFFFFFFFFFFFFFFFFFFFFFFF2C
:1034B000FFFFFFFFFFFFFFFFFFFFFFFFFFFFFFFF1C
:1034C000FFFFFFFFFFFFFFFFFFFFFFFFFFFFFFFF0C
:1034D000FFFFFFFFFFFFFFFFFFFFFFFFFFFFFFFFFC
:1034E000FFFFE3FFFFFFC1FFFFFF83FFFFFF00FFC1
:1034F000FFFE03FFFFFC007FFFFC03FFFFF8007FE0
:10350000FFF803FFFFF0007FFFF043FFFFF0007FB5
:10351000FFE1C3FFFFE1F07FFF83C3FFFFE3FFFF96
:10352000FF07C3FFFFE7FFFFFE0FC3FFFFC7FFFF5C
:10353000FC1FC3FFFFCFFFFFF83FC3FFFFCFFFFF1D
:10354000F07FC3FFFFCFFFFFE0FFC3FFFFCFFFFF11
:10355000C1FFC3FFFFCFFFFF83FFC3FFFFC7FFFF15
:1035600007FFC3FFFFC7FFFC0FFFC3FFFFC3FFF051
:103570001FFFC3FFFFE0FFC03FFFC3FFFFE00000EE
:103580007FFF83FFFFF00000FFFF83FFFFF00001DC
:10359000FFFE03FFFFF80007FFF003FFFFFC000F33
:1035A000FFE003FFFFFF007FFFE00FFFFFFFFFFFD4
:1035B000FFE7FFFFFFFFFFFFFFFFFFFFFFFFFFFF33
:1035C000FFFFFFFFFFFFFFFFFFFFFFFFFFFFFFFF0B
:1035D000FFFFFFFFFFFFFFFFFFFFFFFFFFFFFFFFFB
:1035E000FFFFFFFFFFFFFFFFFFF87FFFFFFE07FF6B
:1035F000FFF01FFFFFFC03FFFFE00FFFFFF803FFDB
:10360000FFE007FFFFF003FFFFE007FFFFE003FF1E
:10361000FFE003FFFFE3C3FFFFF0E3FFFFE7FFFF70
:10362000FFFFF1FFFFC7FFFCFFFFF1FFFFCFFFFC34
:10363000FFFFF9FFFFCFFFFCFFFFF9FFFFCFFFFC0C
:10364000FFFFF9FFFFCFFFFCFFFFF9FFFFCFFFF800
:103650007FFFF9FFFFC7FFF87FFFF1FFFFC3FFF018
:103660007FFFF1FFFFC1FFE23FFFE1FFFFE07F824D
:103670001FFFC3FFFFE000030FFF83FFFFF0000702
:1036800001FC07FFFFF8000F800007FFFFFC001F91
:1036900080000FFFFFFE003FC0001FFFFFFF80FF05
:1036A000F0003FFFFFFFFFFFF800FFFFFFFFFFFFFE
:1036B000FF07FFFFFFFFFFFFFFFFFFFFFFFFFFFF12
:1036C000FFFFFFFFFFFFFFFFFFFFFFFFFFFFFFFF0A
:1036D000FFFFFFFFFFFFFFFFFF7FFFFFFFFFFFFF7A
:1036E000FC7FFFFFFFFFFFFFF87FFFFFFFFFFFFFF4
:1036F000E07FFFFFFFFFFFFF807FFFFFFFFFFFFF78
:10370000027FFFFFFFFFFFFC0E7FFFFFFFFFFFF8C1
:103710003E7FFFFFFFFFFFE07E7FFFFFFFFFFF8198
:10372000FE7FFFFFFFFFFF03FE7FFFFFFFFFFC0F9A
:10373000FE7FF3FFFFFFF83FFE7FF3FFFFFFE07F19
:10374000FE7FF3FFFFFFC1FFFE7FF3FFFFFF03FFDD
:10375000FE7FF3FFFFFC0FFFFE7FF3FFFFF800008B
:10376000000003FFFFE00000000003FFFFE0000097
:10377000000003FFFFE00000000003FFFFE0000087
:10378000000003FFFFE00000000003FFFFFFFFFF5A
:10379000FE7FF3FFFFFFFFFFFE7FF3FFFFFFFFFF53
:1037A000FE7FF3FFFFFFFFFFFE7FF3FFFFFFFFFF43
:1037B000FE7FF3FFFFFFFFFFFE7FF3FFFFFFFFFF33
:1037C000FE7FFFFFFFFFFFFFFFFFFFFFFFFFFFFF8A
:1037D000FFFFFFFFFFFFFFFFFFFFFFFFFFFFFFFFF9
:1037E000FFFFFFFFFFFFFFFFFFF07FFFFFFFFFFF78
:1037F000FFE03FFFFFFFF0001FC01FFFFFE00000E2
:103800001FC00FFFFFE000001FC007FFFFE0000C1C
:103810001FC003FFFFE1FFF87FE1E3FFFFE1FFF0DF
:10382000FFFFF3FFFFE1FFF1FFFFF1FFFFE1FFF11A
:10383000FFFFF1FFFFE1FFE3FFFFF9FFFFE1FFE320
:10384000FFFFF9FFFFE1FFE3FFFFF9FFFFE1FFE308
:10385000FFFFF9FFFFE1FFE3FFFFF9FFFFE1FFE1FA
:10386000FFFFF1FFFFE1FFE1FFFFE1FFFFE1FFE00D
:10387000FFFFC3FFFFE1FFF03FFF83FFFFE1FFF02A
:103880000FFC03FFFFE1FFF8000007FFFFE1FFF877
:1038900000000FFFFFE1FFFC00001FFFFFE1FFFF43
:1038A00000003FFFFFE3FFFF8000FFFFFFFFFFFF80
:1038B000F80FFFFFFFFFFFFFFFFFFFFFFFFFFFFF0F
:1038C000FFFFFFFFFFFFFFFFFFFFFFFFFFFFFFFF08
:1038D000FFFFFFFFFFFFFFFFFFFFFFFFFFFFFFF8FF
:1038E00001FFFFFFFFFFFE000007FFFFFFFFF000EB
:1038F0000001FFFFFFFFC00000007FFFFFFF00008F
:1039000000001FFFFFFE000000000FFFFFFC000093
:10391000000007FFFFF807F81FF807FFFFF03FF070
:103920007FFF03FFFFF0FFE0FFFF83FFFFE1FFE109
:10393000FFFFE1FFFFE3FFE3FFFFF1FFFFC7FFC36F
:10394000FFFFF1FFFFC7FFC7FFFFF9FFFFCFFFC773
:10395000FFFFF9FFFFCFFFC7FFFFF9FFFFCFFFC753
:10396000FFFFF9FFFFCFFFC3FFFFF1FFFFC7FFC15D
:10397000FFFFF1FFFFC01FC0FFFFE3FFFFC01FE01D
:103980007FFF83FFFFE01FE00FF807FFFFF01FF04E
:1039900000000FFFFFF01FF000000FFFFFFC3FFCD7
:1039A00000003FFFFFFFFFFE00007FFFFFFFFFFF64
:1039B000C001FFFFFFFFFFFFFFFFFFFFFFFFFFFF54
:1039C000FFFFFFFFFFFFFFFFFFFFFFFFFFFFFFFF07
:1039D000FFFFFFFFFFFFFFFFFFFFFFFFFFFFFFFFF7
:1039E000FFFFFFFFFFFFF3FFFFFFFFFFFFFC03FFF2
:1039F000FFFFFFFFFFE003FFFFFFFFFFFFE007FF09
:103A0000FFFFFFFFFFE03FFFFFFFFFFFFFE07FFF44
:103A1000FFFFFFFFFFE0FFFFFFFFFFFFFFE1FFFFF3
:103A2000FFFFFFFFFFE1FFFFFFE003FFFFE1FFFFFD
:103A3000FE0001FFFFE1FFFFF00001FFFFE1FFFFDC
:103A4000C00001FFFFE1FFFF000001FFFFE1FFFCFD
:103A5000000001FFFFE1FFE0000003FFFFE1FF8046
:103A60000FFFFFFFFFE1FE007FFFFFFFFFE1FC0311
:103A7000FFFFFFFFFFE1F01FFFFFFFFFFFE1C07F40
:103A8000FFFFFFFFFFE101FFFFFFFFFFFFE007FF79
:103A9000FFFFFFFFFFE01FFFFFFFFFFFFFE07FFFD4
:103AA000FFFFFFFFFFE1FFFFFFFFFFFFFFE3FFFF60
:103AB000FFFFFFFFFFFFFFFFFFFFFFFFFFFFFFFF16
:103AC000FFFFFFFFFFFFFFFFFFFFFFFFFFFFFFFF06
:103AD000FFFFFFFFFFFFFFFFFFFFFFFFFFFFFFFFF6
:103AE000FF01FFFFFFFF80FFF8007FFFFFFE003FA9
:103AF000F0003FFFFFFC001FE0001FFFFFF8000F7A
:103B0000C0000FFFFFF0000780FE07FFFFE07C030F
:103B100007FF83FFFFE1FF010FFFC3FFFFE3FF800C
:103B20003FFFE3FFFFC7FFC07FFFF1FFFFC7FFE0DD
:103B30007FFFF1FFFFCFFFE07FFFF9FFFFCFFFF037
:103B40007FFFF9FFFFCFFFF83FFFF9FFFFCFFFF83F
:103B50003FFFF9FFFFCFFFF81FFFF9FFFFC7FFFC93
:103B60000FFFF1FFFFC7FFF807FFF1FFFFC3FFF0F3
:103B700007FFE3FFFFE1FFE101FFE3FFFFE0FF835A
:103B800000FF83FFFFF00007803E07FFFFF0000704
:103B9000C00007FFFFF8000FE0000FFFFFFC003F31
:103BA000F0001FFFFFFF007FFC007FFFFFFFFFFF14
:103BB000FF01FFFFFFFFFFFFFFFFFFFFFFFFFFFF13
:103BC000FFFFFFFFFFFFFFFFFFFFFFFFFFFFFFFF05
:103BD000FFFFFFFFFFFFFFFFFFFFFFFFFFFFF00300
:103BE000FFFFFFFFFFFF80007FFFFFFFFFFE0000E2
:103BF0003FFF1FFFFFFC00001FFC0FFFFFF800004E
:103C00000FFC07FFFFF0000007FC03FFFFE03FF899
:103C100007FC03FFFFE0FFFF03FC01FFFFE3FFFFE3
:103C200083FE01FFFFC7FFFFC3FFF1FFFFC7FFFFD9
:103C3000C3FFF9FFFFCFFFFFE3FFF9FFFFCFFFFF58
:103C4000E3FFF9FFFFCFFFFFE3FFF1FFFFCFFFFF30
:103C5000C3FFF1FFFFCFFFFFC3FFE3FFFFC7FFFF7E
:103C600087FFC3FFFFC3FFFF07FF03FFFFE1FFFE67
:103C70000FFC07FFFFE07FFC1FE00FFFFFF00FF0DE
:103C800038001FFFFFF8000000003FFFFFFC0000AE
:103C900000007FFFFFFE00000001FFFFFFFF0000AC
:103CA0000007FFFFFFFFE000001FFFFFFFFFFC001A
:103CB00001FFFFFFFFFFFFFFFFFFFFFFFFFFFFFF12
:103CC000FFFFFFFFFFFFFFFFFFFFFFFFFFFFFFFF04
:103CD000FFFFFFFFFFFFFFFFFFFFFFFFFFFFFFFFF4
:103CE000FFFFFFFFFFFFFFFFFFFFFFFFFFFFFFFFE4
:103CF000FFFFFFFFFFFFFFFFFFFFFFFFFFFFFFFFD4
:103D0000FFFFFFFFFFFFFFFFFFFFFFFFFFFFFFFFC3
:103D1000FFFFFFFFFFFFFFFFFFFFFFFFFFFFFFFFB3
:103D2000FFFFFFFFFFFFFFC3FFFF87FFFFFFFF81D5
:103D3000FFFF03FFFFFFFF00FFFE01FFFFFFFF008C
:103D4000FFFE01FFFFFFFF00FFFE01FFFFFFFF007F
:103D5000FFFE01FFFFFFFF00FFFE01FFFFFFFF81EE
:103D6000FFFF03FFFFFFFFC3FFFF87FFFFFFFFFF13
:103D7000FFFFFFFFFFFFFFFFFFFFFFFFFFFFFFFF53
:103D8000FFFFFFFFFFFFFFFFFFFFFFFFFFFFFFFF43
:103D9000FFFFFFFFFFFFFFFFFFFFFFFFFFFFFFFF33
:103DA000FFFFFFFFFFFFFFFFFFFFFFFFFFFFFFFF23
:103DB000FFFFFFFFFFFFFFFFFFFFFFFFFFFFFFFF13
:103DC000FFFFFFFFFFFFFFFFFFFFFFFFFFFFFFFF03
:103DD000FFFFFFFFFFFFFFFFFFFFFFFFFFFFFFFFF3
:103DE000FFFFFFFFFFFFFFFFFFFFFFFFFFFFFFFFE3
:103DF000FFFFFFFFFFFFFFFFFFFFFFFFFFFFFFFFD3
:103E0000FFFFFFFFFFFFFFFFFFFFFFFFFFFFFFFFC2
:103E1000FFFFFFFFFFFFFFFFFFFFFFFFFFFFFFFFB2
:103E2000FFFFFFFFFFFFFFFFFFFFFFFFFFFFFFFFA2
:103E3000FFFFFFFFFFFFFFFFFFFFFFFFFFFFFFFF92
:103E4000FFFFFFFFFFFFFFFFFFFFFFFFFFFFFFFF82
:103E5000FFFFFFFFFFFFFFFFFFFFFFFFFFFFFFFF72
:103E6000FFFFFFFFFFFFFFFFFFFFFFFFFFFFFFFF62
:103E7000FFFFFFFFFFFFFFFFFFFFFFFFFFFFFFFF52
:103E8000FFFFFFFFFFFFFFFFFFFFFFFFFFFFFFFF42
:103E9000FFFFFFFFFFFFFFFFFFFFFFFFFFFFFFFF32
:103EA000FFFFFFFFFFFFFFFFFFFFFFFFFFFFFFFF22
:103EB000FFFFFFFFFFFFFFFFFFFFFFFFFFFFFFFF12
:103EC000FFFFFFFFFFFFFFFFFFFFFFFFFFFFFFFF02
:103ED000FFFFFFFFFFFFFFFFFFFFFFE3FFFFFFFF0E
:103EE000FFFFFFFFFFFFFFFFFFFFFFEFFFFFFFFFF2
:103EF000FFFFFFFFFFFFFFFFFFFFFFF2FFFFFFFFDF
:103F0000FFFFFFFFFFFFFFFFFFFFFFE9FFFFFFFFD7
:103F1000FFFFFFFFFFFFFFFFFFFFFFE5FFFFFFFFCB
:103F2000FFFFFFFFFFFFFFFFFFFFFFFDFFFFFFFFA3
:103F3000FFFFFFFFFFFFFFFFFFFFFFCEFFFFFFFFC2
:103F4000FFFFFFFFFFFFFFFFFFFFFFE3FFFFFFFF9D
:103F5000FFFFFFFFFFFFFFFFFFFFFFC7FFFFFFFFA9
:103F6000FFFFFFFFFFFFFFFFFFFFFFEDFFFFFFFF73
:103F7000FFFFFFFFFFFFFFFFFFFFFFD2FFFFFFFF7E
:103F8000FFFFFFFFFFFFFFFFFFFFFFEEFFFFFFFF52
:103F9000FFFFFFFFFFFFFFFFFFFFFFE2FFFFFF7FCE
:103FA000FFFFFFFFFFFFFFFFFFFFFFDFFFFCFC7FC7
:103FB000FFFFFFFFFFFFFFFFFFFFFFF4FFF8787F2A
:103FC000FFFFFFFFFFFFFFFFFFFFFFF1FFF8F07FA5
:103FD000FFFFFFFFFFFFFFFFFFFFFFD2FFF9F07FB3
:103FE000FFFFFFFFFFFFFFFFFFFFFFE6FFF9E27F9D
:103FF000FFFFFFFFFFFFFFFFFFFFFFEBFFF8C67FA5
:10400000FFFFFFFFFFFFFFFFFFFFFFFBFFF80E7F3C
:10401000FFFFFFFFFFFFFFFFFFFFFFE3FFFC1E7F30
:10402000FFFFFFFFFFFFFFFFFFFFFFFEFFFE3E7FE3
:10403000FFFFFFFFFFFFFFFFFFFFFFC8FFFFFFFFC7
:10404000FFFFFFFFFFFFFFFFFFFFFFCCFFFFFFFFB3
:10405000FFFFFFFFFFFFFFFFFFFFFFFBFFFFFFFF74
:10406000FFFFFFFFFFFFFFFFFFFFFFF1FFFFFE7FEF
:10407000FFFFFFFFFFFFFFFFFFFFFFE2FFFFFE7FEE
:10408000FFFFFFFFFFFFFFFFFFFFFFFFFFFFFE7FC1
:10409000FFFFFFFFFFFFFFFFFFFFFFD4FFFFFFFF5B
:1040A000FFFFFFFFFFFFFFFFFFFFFFD0FFFFFFFF4F
:1040B000FFFFFFFFFFFFFFFFFFFFFFC0FFFFFFFF4F
:1040C000FFFFFFFFFFFFFFFFFFFFFFFEFFFF3FFFC1
:1040D000FFFFFFFFFFFFFFFFFFFFFFDDFFFE3FFFD3
:1040E000FFFFFFFFFFFFFFFFFFFFFFF4FFFE3FFFAC
:1040F000FFFFFFFFFFFFFFFFFFFFFFD6FFF8007F7F
:10410000FFFFFC001FFFFFFFFFFFFFEDFFF8007F39
:10411000FFFFFC001FFFFFFFFFFFFFCFFFF8007F47
:10412000FFFFFC001FFFFFFFFFFFFFC4FFFFFFFFBC
:10413000FFFFFCE79FFFFFFFFFFFFFEFFFFFFFFF1A
:10414000FFFFFCE79FFFFFFFFFFFFFE9FFFFFFFF10
:10415000FFFFFCE79FFFFFFFFFFFFFCDFFFFFFFF1C
:10416000FFFFFCE79FFFFFFFFFFFFFD6FFFFFFFF03
:10417000FFFFFC639FFFFFFFFFFFFFEAFFFEFCFF67
:10418000FFFFFE431FFFFFFFFFFFFFFDFFFCFC7F64
:10419000FFFFFE001FFFFFFFFFFFFFD9FFF8FC7FBF
:1041A000F7F3FE003FFFFFFFFFFFFFC2FFF8FE3FF8
:1041B000E7E3FFB87FFFFFFFFFFFFFE3FFF9DF3F0C
:1041C000C7C3FFFFFFFFFFFFFFFFFFE8FFF98E3FC1
:1041D000CF83FFFFFFFFFFFFFFFFFFFEFFF8047F1E
:1041E000CF03FFFFFFFFFFFFFFFFFFF3FFFC007F99
:1041F000CE33FC001FFFFFFFFFFFFFEFFFFE60FF5E
:10420000C433FC001FFFFFFFFFFFFFFBFFFFF9FFB1
:10421000C073FC001FFFFFFFFFFFFFD3FFFFFFFF87
:10422000E0F3FFFFFFFFFFFFFFFFFFD8FFFFFFFFF0
:10423000F3F3FFFFFFFFFFFFFFFFFFDEFFFFFFFFC7
:10424000FFFFFFFE3FFFFFFFFFFFFFC3FFFFFFFF7B
:10425000FFFFFFEC1FFFFFFFFFFFFFC6FFFFFFFF9A
:10426000FC67FFC41FFFFFFFFFFFFFDDFFFFFFFF36
:10427000C063FFCC9FFFFFFFFFFFFFE9FFFFFFFFD2
:10428000C063FFDD9FFFFFFFFFFFFFEEFFFFFFFFAC
:10429000C0F3FFD99FFFFFFFFFFFFFFBFFFFFFFF03
:1042A000CCF3FFC03FFFFFFFFFFFFFFBFFF8007FE6
:1042B000CCF3FFC01FFFFFFFFFFFFFDCFFF8007F15
:1042C000CC63FFC01FFFFFFFFFFFFFCFFFF8007FA2
:1042D000CE03FFFFDFFFFFFFFFFFFFE9FFFFFFFF51
:1042E000CE07FFFFFFFFFFFFFFFFFFEDFFFFFFFF19
:1042F000FF9FFFFFFFFFFFFFFFFFFFC9FFFFFFFF64
:10430000FFFFFFF07FFFFFFFFFFFFFFBFFFF007FCF
:10431000FC3FFFE03FFFFFFFFFFFFFE6FFFF007FE7
:10432000E007FFC01FFFFFFFFFFFFFD4FFFF807FFD
:10433000C003FFCF9FFFFFFFFFFFFFD1FFFFBFFFC6
:10434000C3C3FFDF9FFFFFFFFFFFFFE6FFFF3FFF4E
:10435000CFF3FFDF9FFFFFFFFFFFFFE4FFFF3FFF04
:10436000CFF3FFCF9FFFFFFFFFFFFFFDFFFF007FAA
:10437000CFF3FFC71FFFFFFFFFFFFFD8FFFF007F47
:10438000C003FFE73FFFFFFFFFFFFFF8FFFF807F56
:10439000E007FFFF7FFFFFFFFFFFFFCDFFFFFFFFF6
:1043A000F00FFFFFFFFFFFFFFFFFFFC5FFFFFFFF56
:1043B000FFFFFFFFFFFFFFFFFFFFFFE5FFFFFFFF27
:1043C000FFFFFE001FFFFFFFFFFFFFFBFFFFC1FF1F
:1043D000FFFFFC001FFFFFFFFFFFFFDFFFFF807FEE
:1043E000FFFFFC001FFFFFFFFFFFFFF1FFFF807FCC
:1043F000FFFFFFF0FFFFFFFFFFFFFFC7FFFF1E3FB5
:10440000FFFFFFF1FFFFFFFFFFFFFFC3FFFF3F3F86
:10441000FFFFFFE07FFFFFFFFFFFFFDBFFFF3F3FEF
:10442000FFFFFFC03FFFFFFFFFFFFFFCFFFF1E3F3F
:10443000FBFBFFCE1FFFFFFFFFFFFFD8FFFF9C7FAF
:10444000F9F3FFDF1FFFFFFFFFFFFFD7FFFF9C7F99
:10445000F8E3FFFFDFFFFFFFFFFFFFCAFFFFFDFFE6
:10446000F803FFFFFFFFFFFFFFFFFFCEFFFFFFFF90
:10447000FC07FFFFFFFFFFFFFFFFFFF5FFFFFFFF51
:10448000FE0FFFF83FFFFFFFFFFFFFC6FFF8007FB3
:10449000FC07FF303FFFFFFFFFFFFFFEFFF8007F3D
:1044A000F843FE001FFFFFFFFFFFFFC4FFF8007F80
:1044B000F8E3FC039FFFFFFFFFFFFFF8FFFF1FFF75
:1044C000F9F3FCC39FFFFFFFFFFFFFE2FFFF3FFF8A
:1044D000FFFBFCC19FFFFFFFFFFFFFFDFFFF3FFF53
:1044E000FFFFFC001FFFFFFFFFFFFFE8FFFF1FFFB5
:1044F000FFFFFC081FFFFFFFFFFFFFF5FFFF007F2F
:10450000FFFFFE1C3FFFFFFFFFFFFFE2FFFF807F7B
:10451000FFFFFF383FFFFFFFFFFFFFD8FFFFC07F18
:10452000FFFFFFF81FFFFFFFFFFFFFDDFFFFFFFFA4
:10453000FFFFFFF91FFFFFFFFFFFFFE5FFFFFFFF8B
:10454000FFFFFFFFBFFFFFFFFFFFFFD9FFFFFFFFE1
:10455000FFFFFFFFFFFFFFFFFFFFFFD7FFFFFFFF93
:10456000F9FFFC7FFFFFFFFFFFFFFFFBFFFFFFFFE8
:10457000F1FFFC0FFFFFFFFFFFFFFFCBFFFFFFFF80
:10458000E3FFFC01FFFFFFFFFFFFFFD5FFFFFFFF82
:10459000C003FF001FFFFFFFFFFFFFECFFFFFFFF58
:1045A000C003FFF01FFFFFFFFFFFFFE1FFFFFFFF63
:1045B000C003FFF81FFFFFFFFFFFFFD9FFF8007FD9
:1045C000FFFFFFC01FFFFFFFFFFFFFE5FFF8007FBA
:1045D000FFFFFE007FFFFFFFFFFFFFC9FFF8007F27
:1045E000FFFFFC03FFFFFFFFFFFFFFDCFFF98E7FF4
:1045F000FFFFFC1FFFFFFFFFFFFFFFDAFFF9CE7F8A
:10460000FFFFFC07FFFFFFFFFFFFFFEBFFF9CE7F80
:10461000F7F3FE00FFFFFFFFFFFFFFF7FFF9CE7F7D
:10462000E7E3FF801FFFFFFFFFFFFFCAFFF9CE7F19
:10463000C7C3FFF81FFFFFFFFFFFFFDCFFF9CE7FBF
:10464000CF83FFF81FFFFFFFFFFFFFCEFFF9CE7FF5
:10465000CF03FF801FFFFFFFFFFFFFDBFFF9CE7FD0
:10466000CE33FC007FFFFFFFFFFFFFD4FFFFFF7F84
:10467000C433FC07FFFFFFFFFFFFFFD6FFFFFFFF75
:10468000C073FC7FFFFFFFFFFFFFFFD6FFFFFFFFB1
:10469000E0F3FFFFFFFFFFFFFFFFFFDDFFFFF3FF83
:1046A000F3F3FFFFFFFFFFFFFFFFFFFFFFFFF3FF3E
:1046B000FFFFFC001FFFFFFFFFFFFFD1FFFFF3FF26
:1046C000FFFFFC001FFFFFFFFFFFFFFDFFFFF3FFEA
:1046D000F7F3FC001FFFFFFFFFFFFFD7FFFFF3FF14
:1046E000E7E3FFCFFFFFFFFFFFFFFFE4FFFFF3FF65
:1046F000C7C3FFDFFFFFFFFFFFFFFFE6FFFFFFFF77
:10470000CF83FFCFFFFFFFFFFFFFFFFCFFFFFFFF98
:10471000CF03FFC01FFFFFFFFFFFE03DFFFF0007CC
:10472000CE33FFC01FFFFFFFFFF80026FFFF00078B
:10473000C433FFC01FFFFFFFFF800016FFFF80078D
:10474000C073FFFFFFFFFFFFFE000031FFFFBE7FD2
:10475000E0F3FFFFFFFFFFFFC0000015FFFF3F3F3B
:10476000F3F3FFFFFFFFFFFC00000031FFFF3F3FBF
:10477000FFFFFFFFFFFFFFF00000000BFFFF1E3FEA
:10478000FFFFFCC01FFFFE000000000BFFFF807F4B
:10479000FFFFFCC01FFFF80000000005FFFF80FFC7
:1047A000FFFFFCC01FFFC00007800027FFFFE1FFE5
:1047B000FFFFFFFFFFFF80001FE00027FFFFFFFF5D
:1047C000FFFFFFFFFFFE00003FF80000FFFFFFFFBD
:1047D000FFFFFFCFFFFC000070780031FFFFD87FA4
:1047E000FFFFFF003FF80000E03C002EFFFF987F36
:1047F000C003FE001FF80000E01C001BFFFF103F7D
:10480000C003FE001FFC0000E01C000DFFFF333F53
:10481000C003FFCF9FFF8000E01C003FFFFF333F3E
:10482000CE3FFFCF9FFFE000E01C0034FFFF327F50
:10483000CE7FFFFFFFFFFC00E0380011FFFF007F8D
:10484000CE7FFFFFFFFFFE0070780018FFFF007FA4
:10485000CE7FFFE07FFFFE003FF00039FFFF807F4B
:10486000CE7FFFC03FFFFE001FE0000BFFFFFFFFFA
:10487000C47FFFC01FFFFE0007C00028FFFFFFFF2F
:10488000C07FFFCD9FFFFE000000002BFFFFFFFF5A
:10489000E0FFFFDD9FFFFE000000002BFFFF800711
:1048A000F1FFFFCD9FFFFE0000000023FFFF000788
:1048B000FFFFFFC11FFFFE0000000003FFFF000716
:1048C000FFFFFFC11FFFFE0000000002FFFF8C7F03
:1048D000D803FFE13FFFFE0000000031FFFFBE7F75
:1048E000C803FFF9FFFFFE0000000031FFFF3F3F5C
:1048F000C803FFFFFFFFFE0000000015FFFF3E3F63
:10490000FFFFFFFEFFFFFE0000000001FFFF0C7F26
:10491000FFFFFFF83FFFFE000000003CFFFF807F2D
:10492000FFFFFE101FFFFE000000003BFFFF80FFA7
:10493000FBFBFE011FFFFF001F80000BFFFFE3FFDB
:10494000F8E3FC039FFFFF003FE0001AFFFFFFFFBB
:10495000F843FCC39FFFFF0070F00030FFFFF3FF40
:10496000FC07FCC19FFFFF00E0780005FFFFC0FFD0
:10497000FE0FFC001FFFFE00C038002AFFFF807FF3
:10498000FC0FFE181FFFF800C0180039FFFF107F52
:10499000F803FE1C3FFFC000C018000AFFFF323FB3
:1049A000F8C3FFF83FFF0000C03C0008FFFF333FA3
:1049B000F9F3FFF81FFE0000C0380020FFFF323F70
:1049C000FBFBFFF91FF800006078002BFFFF027F60
:1049D000FFFFFFFFBFF000007CF0002DFFFF827F94
:1049E000FFFFFFFFFFF000003FE00020FFFFC2FFDE
:1049F000FE07FFFFFFF800001FC00020FFFFFFFFC2
:104A0000FC03FC001FFF00000000002BFFFFFFFF66
:104A1000F803FC001FFFC0000000000FFFFFFFFFB6
:104A2000F9B3FC001FFFF8000000001DFFFF007F2E
:104A3000F9BBFCF3FFFFFF0000000021FFFF007F38
:104A4000F9B3FCF3FFFFFFF000000018FFFF007F49
:104A5000F823FCF3FFFFFFFF8000003AFFFF8FFF0A
:104A6000FC23FCF1FFFFFFFFE000000EFFFF1FFF34
:104A7000FC37FCF0FFFFFFFFFF000004FFFF1FFFFC
:104A8000FFBFFC607FFFFFFFFFFE0010FFFF1FFF67
:104A9000FFFFFE003FFFFFFFFFFFFE22FFFFFFFFC4
:104AA000FFFFFE061FFFFFFFFFFFFFDDFFFFFFFF12
:104AB000C003FF0F1FFFFFFFFFFFFFCEFFFFFFFF42
:104AC000C003FFFF9FFFFFFFFFFFFFF1FFFFFFFF9F
:104AD000C003FFFFFFFFFFFFFFFFFFECFFFFFFFF34
:104AE000FFFFFFFFFFFFFFFFFFFFFFF2FFFFFFFFE3
:104AF000FFFFFFE07FFFFFFFFFFFFFD3FFFFFFFF91
:104B0000FEEFFFC03FFFFFFFFFFFFFD7FFFFFFFFED
:104B1000FC27FFC01FFFFFFFFFFFFE29FFF8007FFC
:104B2000F823FFCD9FFFFFFFFFFFC01CFFF8007FB2
:104B3000F833FFDD9FFFFFFFFFF0003DFFF8007F30
:104B4000F91BFFCD9FFFFFFF8000001DFFFFCFFF80
:104B5000F91BFFC11FFFFFFF00000012FFFFCFFF87
:104B6000F993FFC11FFFFFFC00000037FFFFCFFFDD
:104B7000F883FFE13FFFFFFC00000032FFFFCFFFA3
:104B8000FC83FFF9FFFFFFFC000007D9FFFFCFFF09
:104B9000FCC7FFFFFFFFFFFF0000FFD1FFFFCFFFBC
:104BA000FFFFFFF8FFFFFFFFFFFFFFEBFFF8007FB6
:104BB000FFFFFFE03FFFFFFFFFFFFFCDFFF8007F9C
:104BC000FFFFFFC01FFFFFFFFFFFFFF3FFF8007FA6
:104BD000FFFFFFC71FFFFFFFFFFFFFEAFFFFFFFF12
:104BE000FFFFFFCF9FFFFFFFFFFFFFC4FFFFFFFFA0
:104BF000FFFFFFDF9FFFFFFFFFFFFFDEFFFFFC7FE9
:104C0000FFFFFFCF9FFFFFFFFFFFFFF9FFFFF07FD9
:104C1000FFFFFFC71FFFFFFFFFFFFFFDFFFFC07F7D
:104C2000FFFFFC001FFFFFFFFFFFFFFAFFFE01FF7A
:104C3000FFFFFC001FFFFFFFFFFFFFDFFFF801FF8B
:104C4000FFFFFE001FFFFFFFFFFFFFD2FFF839FF4E
:104C5000FFFFFFFFFFFFFFFFFFFFFFDFFFF879FF11
:104C6000FFFFFFFFFFFFFFFFFFFFFFFFFFF811FF49
:104C7000FFFFFFFFFFFFFFFFFFFFFFCBFFFE01FF77
:104C8000FFFFFFFFFFFFFFFFFFFFFFE9FFFF80FFC9
:104C9000FFFFFFFFFFFFFFFFFFFFFFE1FFFFE07FE1
:104CA000FFFFFFFFFFFFFFFFFFFFFFDDFFFFFC7FB9
:104CB000FFFFFFFFFFFFFFFFFFFFFFF8FFFFFF7F8B
:104CC000FFFFFFFFFFFFFFFFFFFFFFC2FFFFFFFF31
:104CD000FFFFFFFFFFFFFFFFFFFFFFF0FFFFFFFFF3
:104CE000FFFFFFFFFFFFFFFFFFFFFFCFFFF9FFFF0A
:104CF000FFFFFFFFFFFFFFFFFFFFFFECFFF9FFFFDD
:104D0000FFFFFFFFFFFFFFFFFFFFFFFCFFF9FFFFBC
:104D1000FFFFFFFFFFFFFFFFFFFFFFF3FFF9FFFFB5
:104D2000FFFFFFFFFFFFFFFFFFFFFFFCFFF8007F1C
:104D3000FFFFFFFFFFFFFFFFFFFFFFEBFFF8007F1D
:104D4000FFFFFFFFFFFFFFFFFFFFFFCAFFF8007F2E
:104D5000FFFFFFFFFFFFFFFFFFFFFFCFFFF9FFFF99
:104D6000FFFFFFFFFFFFFFFFFFFFFFE1FFF9FFFF77
:104D7000FFFFFFFFFFFFFFFFFFFFFFFAFFF9FFFF4E
:104D8000FFFFFFFFFFFFFFFFFFFFFFC2FFF9FFFF76
:104D9000FFFFFFFFFFFFFFFFFFFFFFD7FFFFFFFF4B
:104DA000FFFFFFFFFFFFFFFFFFFFFFEAFFFFFFFF28
:104DB000FFFFFFFFFFFFFFFFFFFFFFD3FFFFFFFF2F
:104DC000FFFFFFFFFFFFFFFFFFFFFFC7FFFFFFFF2B
:104DD000FFFFFFFFFFFFFFFFFFFFFFDAFFFFFFFF08
:104DE000FFFFFFFFFFFFFFFFFFFFFFF3FFFFFFFFDF
:104DF000FFFFFFFFFFFFFFFFFFFFFFF1FFFFFFFFD1
:104E0000FFFFFFFFFFFFFFFFFFFFFFE5FFFFFFFFCC
:104E1000FFFFFFFFFFFFFFFFFFFFFFC6FFFFFFFFDB
:104E2000FFFFFFFFFFFFFFFFFFFFFFD0FFFFFFFFC1
:104E3000FFFFFFFFFFFFFFFFFFFFFFFDFFFFFFFF84
:104E4000FFFFFFFFFFFFFFFFFFFFFFE4FFFFFFFF8D
:104E5000FFFFFFFFFFFFFFFFFFFFFFCEFFFFFFFF93
:104E6000FFFFFFFFFFFFFFFFFFFFFFC2FFFFFFFF8F
:104E7000FFFFFFFFFFFFFFFFFFFFFFE3FFFFFFFF5E
:104E8000FFFFFFFFFFFFFFFFFFFFFFEFFFFFFFFF42
:104E9000FFFFFFFFFFFFFFFFFFFFFFF2FFFFFFFF2F
:104EA000FFFFFFFFFFFFFFFFFFFFFFE9FFFFFFFF28
:104EB000FFFFFFFFFFFFFFFFFFFFFFE5FFFFFFFF1C
:104EC000FFFFFFFFFFFFFFFFFFFFFFFDFFFFFFFFF4
:104ED000FFFFFFFFFFFFFFFFFFFFFFCEFFFFFFFF13
:104EE000FFFFFFFFFFFFFFFFFFFFFFE3FFFFFFFFEE
:104EF000FFFFFFFFFFFFFFFFFFFFFFC7FFFFFFFFFA
:104F0000FFFFFFFFFFFFFFFFFFFFFFEDFFFFFFFFC3
:104F1000FFFFFFFFFFFFFFFFFFFFFFD2FFFFFFFFCE
:104F2000FFFFFFFFFFFFFFFFFFFFFFEEFFFFFFFFA2
:104F3000FFFFFFFFFFFFFFFFFFFFFFE2FFFFFFFF9E
:104F4000FFFFFFFFFFFFFFFFFFFFFFDFFFFFFFFF91
:104F5000FFFFFFFFFFFFFFFFFFFFFFF4FFFFFFFF6C
:104F6000FFFFFFFFFFFFFFFFFFFFFFF1FFFFFFFF5F
:104F7000FFFFFFFFFFFFFFFFFFFFFFD2FFFFFFFF6E
:104F8000FFFFFFFFFFFFFFFFFFFFFFE6FFFFFFFF4A
:104F9000FFFFFFFFFFFFFFFFFFFFFFEBFFFFFFFF35
:104FA000FFFFFFFFFFFFFFFFFFFFFFFBFFFFFFFF15
:104FB000FFFFFFFFFFFFFFFFFFFFFFE3FFFFFFFF1D
:104FC000FFFFFFFFFFFFFFFFFFFFFFFEFFFFFFFFF2
:104FD000FFFFFFFFFFFFFFFFFFFFFFC8FFFFFFFF18
:104FE000FFFFFFFFFFFFFFFFFFFFFFCCFFFFFFFF04
:104FF000FFFFFFFFFFFFFFFFFFFFFFFBFFFFFFFFC5
:10500000FFFFFFFFFFFFFFFFFFFFFFF1FFFFFFFFBE
:10501000FFFFFFFFFFFFFFFFFFFFFFE2FFFFFFFFBD
:10502000FFFFFFFFFFFFFFFFFFFFFFFFFFFFFFFF90
:10503000FFFFFFFFFFFFFFFFFFFFFFD4FFFFFFFFAB
:10504000FFFFFFFFFFFFFFFFFFFFFFD0FFFFFFFF9F
:10505000FFFFFFFFFFFFFFFFFFFFFFC0FFFFFFFF9F
:10506000FFFFFFFFFFFFFFFFFFFFFFFEFFFFFFFF51
:10507000FFFFFFFFFFFFFFFFFFFFFFDDFFFFFFFF62
:10508000FFFFFFFFFFFFFFFFFFFFFFF4FFFFFFFF3B
:10509000FFFFFFFFFFFFFFFFFFFFFFD6FFFFFFFF49
:1050A000FFFFFFFFFFFFFFFFFFFFFFEDFFFFFFFF22
:1050B000FFFFFFFFFFFFFFFFFFFFFFCFFFFFFFFF30
:1050C000FFFFFFFFFFFFFFFFFFFFFFC4FFFFFFFF2B
:1050D000FFFFFFFFFFFFFFFFFFFFFFEFFFFFFFFFF0
:1050E000FFFFFFFFFFFFFFFFFFFFFFE9FFFFFFFFE6
:1050F000FFFFFFFFFFFFFFFFFFFFFFCDFFFFFFFFF2
:10510000FFFFFFFFFFFFFFFFF87FFFD6FFFFFFFF5F
:10511000FFFFFFFFFFFFFFFF00001FEAFFFFFFFF92
:10512000FFFFFFFFFFFFFFFC000000FDFFFFFFFF91
:10513000FFFFFFFFFFFFFFFC00000019FFFFFFFF65
:10514000FFFFFFFFFFFFFFFC00000002FFFFFFFF6C
:10515000FFFFFFFFFFFFFFFF00000023FFFFFFFF38
:10516000FFFFFFFFFFFFFFFFE0000028FFFFFFFF43
:10517000FFFFFFFFFFFFFFFFFFFE003EFFFFFFFF00
:10518000FFFFFFFFFFFFFFFFFFFFF033FFFFFFFF0A
:10519000FFFFFFFFFFFFFFFFFFFFFFAFFFFFFFFF6F
:1051A000FFFFFFFFFFFFFFFFFFFFFFFBFFFFFFFF13
:1051B000FFFFFFFFFFFFFFFFFFFFFFD3FFFFFFFF2B
:1051C000FFFFFFFFFFFFFFFFFFFFFFD8FFFFFFFF16
:1051D000FFFFFFFFFFFFFFFFFFFFFFDEFFFFFFFF00
:1051E000FFFFFFFFFFFFFFFFFFFFFFC3FFFFFFFF0B
:1051F000FFFFFFFFFFFFFFFFFFFFFFC6FFFFFFFFF8
:10520000FFFFFFFFFFFFFFFFFFFFFFDDFFFFFFFFD0
:10521000FFFFFFFFFFFFFFFFFFFFFFA9FFFFFFFFF4
:10522000FFFFFFFFFFFFFFFFFFFE002EFFFFFFFF5F
:10523000FFFFFFFFFFFFFFFFFF80003BFFFFFFFFC0
:10524000FFFFFFFFFFFFFFFFC000003BFFFFFFFF6F
:10525000FFFFFFFFFFFFFFFF0000001CFFFFFFFF3E
:10526000FFFFFFFFFFFFFFE00000000FFFFFFFFF5A
:10527000FFFFFFFFFFFFFF0000000029FFFFFFFF10
:10528000FFFFFFFFFFFFF8000000002DFFFFFFFF03
:10529000FFFFFFFFFFFFC00000000009FFFFFFFF4F
:1052A000FFFFFFFFFFFF00000FC0003BFFFFFFFFFE
:1052B000FFFFFFFFFFFC00003FE00026FFFFFFFFB6
:1052C000FFFFFFFFFFF800007FF00014FFFFFFFF6C
:1052D000FFFFFFFFFFFC0000FCF80011FFFFFFFFD6
:1052E000FFFFFFFFFFFC0000E0780026FFFFFFFF4D
:1052F000FFFFFFFFFFFF0000E03C0024FFFFFFFF78
:10530000FFFFFFFFFFFF8001C03C003DFFFFFFFFED
:10531000FFFFFFFFFFFFF001C03C0018FFFFFFFF92
:10532000FFFFFFFFFFFFFE01C03C0038FFFFFFFF54
:10533000FFFFFFFFFFFFFE01E03C000DFFFFFFFF4F
:10534000FFFFFFFFFFFFFF00F0F80005FFFFFFFF7B
:10535000FFFFFFFFFFFFFF00FFF80025FFFFFFFF3C
:10536000FFFFFFFFFFFFFF007FE0003BFFFFFFFFAE
:10537000FFFFFFFFFFFFFF001FC0001FFFFFFFFF3A
:10538000FFFFFFFFFFFFFF0000000031FFFFFFFFF7
:10539000FFFFFFFFFFFFFF0000000007FFFFFFFF11
:1053A000FFFFFFFFFFFFFF0000000003FFFFFFFF05
:1053B000FFFFFFFFFFFFFE000000001BFFFFFFFFDE
:1053C000FFFFFFFFFFFFFE000000003CFFFFFFFFAD
:1053D000FFFFFFFFFFFFFE0000000018FFFFFFFFC1
:1053E000FFFFFFFFFFFFFE0000000017FFFFFFFFB2
:1053F000FFFFFFFFFFFFFE000000000AFFFFFFFFAF
:10540000FFFFFFFFFFFFFE000000000EFFFFFFFF9A
:10541000FFFFFFFFFFFFFE0000000035FFFFFFFF63
:10542000FFFFFFFFFFFFFE0000800006FFFFFFFF02
:10543000FFFFFFFFFFFFFE001FE0003EFFFFFFFF3B
:10544000FFFFFFFFFFFFFE003FF00004FFFFFFFF35
:10545000FFFFFFFFFFFFFE007FF80038FFFFFFFFA9
:10546000FFFFFFFFFFFFFE00F0780022FFFFFFFFBE
:10547000FFFFFFFFFFFFF800E03C003DFFFFFFFFE5
:10548000FFFFFFFFFFFFE001E03C0028FFFFFFFF01
:10549000FFFFFFFFFFFF8001E01C0035FFFFFFFF64
:1054A000FFFFFFFFFFFC0001E01C0022FFFFFFFFEA
:1054B000FFFFFFFFFFFC0001E03C0018FFFFFFFFC4
:1054C000FFFFFFFFFFFC0000F03C001DFFFFFFFFA0
:1054D000FFFFFFFFFFFE0000F8F80025FFFFFFFFC2
:1054E000FFFFFFFFFFFF00003FF80019FFFFFFFF76
:1054F000FFFFFFFFFFFFC0001FE00017FFFFFFFFE0
:10550000FFFFFFFFFFFFF8000780003BFFFFFFFFEB
:10551000FFFFFFFFFFFFFC000000000BFFFFFFFF8E
:10552000FFFFFFFFFFFFFF8000000015FFFFFFFFF1
:10553000FFFFFFFFFFFFFFF80000002CFFFFFFFF52
:10554000FFFFFFFFFFFFFFFE00000021FFFFFFFF47
:10555000FFFFFFFFFFFFFFFFF8000019FFFFFFFF46
:10556000FFFFFFFFFFFFFFFFFF000025FFFFFFFF23
:10557000FFFFFFFFFFFFFFFFFFF00009FFFFFFFF3F
:10558000FFFFFFFFFFFFFFFFFFFF001CFFFFFFFF0D
:10559000FFFFFFFFFFFFFFFFFFFFFD5AFFFFFFFFC2
:1055A000FFFFFFFFFFFFFFFFFFFFFFEBFFFFFFFF1F
:1055B000FFFFFFFFFFFFFFFFFFFFFFF7FFFFFFFF03
:1055C000FFFFFFFFFFFFFFFFFFFFFFCAFFFFFFFF20
:1055D000FFFFFFFFFFFFFFFFFFFFFFDCFFFFFFFFFE
:1055E000FFFFFFFFFFFFFFFFFFFFFFCEFFFFFFFFFC
:1055F000FFFFFFFFFFFFFFFFFFFFFFDBFFFFFFFFDF
:10560000FFFFFFFFFFFFFFFFFFFFFFD4FFFFFFFFD5
:10561000FFFFFFFFFFFFFFFFFFFFFFD6FFFFFFFFC3
:10562000FFFFFFFFFFFFFFFFFFFFFFD6FFFFFFFFB3
:10563000FFFFFFFFFFFFFFFFFFFFFFDDFFFFFFFF9C
:10564000FFFFFFFFFFFFFFFFFFFFFFFFFFFFFFFF6A
:10565000FFFFFFFFFFFFFFFFFFFFFFD1FFFFFFFF88
:10566000FFFFFFFFFFFFFFFFFFFFFFFDFFFFFFFF4C
:10567000FFFFFFFFFFFFFFFFFFFFFFD7FFFFFFFF62
:10568000FFFFFFFFFFFFFFFFFFFFFFE4FFFFFFFF45
:10569000FFFFFFFFFFFFFFFFFFFFFFE6FFFFFFFF33
:1056A000FFFFFFFFFFFFFFFFFFFFFFFCFFFFFFFF0D
:1056B000FFFFFFFFFFFFFFFFFFFFFFFDFFFFFFFFFC
:1056C000FFFFFFFFFFFFFFFFFFFFFFE6FFFFFFFF03
:1056D000FFFFFFFFFFFFFFFFFFFFFFD6FFFFFFFF03
:1056E000FFFFFFFFFFFFFFFFFFFFFFF1FFFFFFFFD8
:1056F000FFFFFFFFFFFFFFFFFFFFFFD5FFFFFFFFE4
:10570000FFFFFFFFFFFFFFFFFFFFFFF1FFFFFFFFB7
:10571000FFFFFFFFFFFFFFFFFFFFFFCBFFFFFFFFCD
:10572000FFFFFFFFFFFFFFFFFFFFFFCBFFFFFFFFBD
:10573000FFFFFFFFFFFFFFFFFFFFFFC5FFFFFFFFB3
:10574000FFFFFFFFFFFFFFFFFFFFFFE7FFFFFFFF81
:10575000FFFFFFFFFFFFFFFFFFFFFFE7FFFFFFFF71
:10576000FFFFFFFFFFFFFFFFFFFFFFC0FFFFFFFF88
:10577000FFFFFFFFFFFFFFFFFFFFFFF1FFFFFFFF47
:10578000FFFFFFFFFFFFFFFFFFFFFFEEFFFFFFFF3A
:10579000FFFFFFFFFFFFFFFFFFFFFFDBFFFFFFFF3D
:1057A000FFFFFFFFFFFFFFFFFFFFFFCDFFFFFFFF3B
:1057B000FFFFFFFFFFFFFFFFFFFFFFFFFFFFFFFFF9
:1057C000FFFFFFFFFFFFFFFFFFFFFFF4FFFFFFFFF4
:1057D000FFFFFFFFFFFFFFFFFFFFFFD1FFFFFFFF07
:1057E000FFFFFFFFFFFFFFFFFFFFFFD8FFFFFFFFF0
:1057F000FFFFFFFFFFFFFFFFFFFFFFF9FFFFFFFFBF
:10580000FFFFFFFFFFFFFFFFFFFFFFCBFFFFFFFFDC
:10581000FFFFFFFFFFFFFFFFFFFFFFE8FFFFFFFFAF
:10582000FFFFFFFFFFFFFFFFFFFFFFEBFFFFFFFF9C
:10583000FFFFFFFFFFFFFFFFFFFFFFEBFFFFFFFF8C
:10584000FFFFFFFFFFFFFFFFFFFFFFE3FFFFFFFF84
:10585000FFFFFFFFFFFFFFFFFFFFFFC3FFFFFFFF94
:10586000FFFFFFFFFFFFFFFFFFFFFFC2FFFFFFFF85
:10587000FFFFFFFFFFFFFFFFFFFFFFF1FFFFFFFF46
:10588000FFFFFFFFFFFFFFFFFFFFFFF1FFFFFFFF36
:10589000FFFFFFFFFFFFFFFFFFFFFFD5FFFFFFFF42
:1058A000FFFFFFFFFFFFFFFFFFFFFFC1FFFFFFFF46
:1058B000FFFFFFFFFFFFFFFFFFFFFFFCFFFFFFFFFB
:1058C000FFFFFFFFFFFFFFFFFFFFFFFBFFFFFFFFEC
:1058D000FFFFFFFFFFFFFFFFFFFFFFCBFFFFFFFF0C
:1058E000FFFFFFFFFFFFFFFFFFFFFFDAFFFFFFFFED
:1058F000FFFFFFFFFFFFFFFFFFFFFFF0FFFFFFFFC7
:10590000FFFFFFFFFFFFFFFFFFFFFFC5FFFFFFFFE1
:10591000FFFFFFFFFFFFFFFFFFFFFFEAFFFFFFFFAC
:10592000FFFFFFFFFFFFFFFFFFFFFFF9FFFFFFFF8D
:10593000FFFFFFFFFFFFFFFFFFFFFFCAFFFFFFFFAC
:10594000FFFFFFFFFFFFFFFFFFFFFFC8FFFFFFFF9E
:10595000FFFFFFFFFFFFFFFFFFFFFFE0FFFFFFFF76
:10596000FFFFFFFFFFFFFFFFFFFFFFEBFFFFFFFF5B
:10597000FFFFFFFFFFFFFFFFFFFFFFEDFFFFFFFF49
:10598000FFFFFFFFFFFFFFFFFFFFFFE0FFFFFFFF46
:10599000FFFFFFFFFFFFFFFFFFFFFFE0FFFFFFFF36
:1059A000FFFFFFFFFFFFFFFFFFFFFFEBFFFFFFFF1B
:1059B000FFFFFFFFFFFFFFFFFFFFFFCFFFFFFFFF27
:1059C000FFFFFFFFFFFFFFFFFFFFFFDDFFFFFFFF09
:1059D000FFFFFFFFFFFFFFFFFFFFFFE1FFFFFFFFF5
:1059E000FFFFFFFFFFFFFFFFFFFFFFD8FFFFFFFFEE
:1059F000FFFFFFFFFFFFFFFFFFFFFFFAFFFFFFFFBC
:105A0000FFFFFFFFFFFFFFFFFFFFFFCEFFFFFFFFD7
:105A1000FFFFFFFFFFFFFFFFFFFFFFC4FFFFFFFFD1
:105A2000FFFFFFFFFFFFFFFFFFFFFFD0FFFFFFFFB5
:105A3000FFFFFFFFFFFFFFFFFFFFFFE2FFFFFFFF93
:105A4000FFFFFFFFFFFFFFFFFFFFFFDDFFFFFFFF88
:105A5000FFFFFFFFFFFFFFFFFFFFFFCEFFFFFFFF87
:105A6000FFFFFFFFFFFFFFFFFFFFFFF1FFFFFFFF54
:105A7000FFFFFFFFFFFFFFFFFFFFFFECFFFFFFFF49
:105A8000FFFFFFFFFFFFFFFFFFFFFFF2FFFFFFFF33
:105A9000FFFFFFFFFFFFFFFFFFFFFFD3FFFFFFFF42
:105AA000FFFFFFFFFFFFFFFFFFFFFFD7FFFFFFFF2E
:105AB000FFFFFFFFFFFFFFFFFFFFFFE9FFFFFFFF0C
:105AC000FFFFFFFFFFFFFFFFFFFFFFDCFFFFFFFF09
:105AD000FFFFFFFFFFFFFFFFFFFFFFFDFFFFFFFFD8
